{
  "contractName": "BuybackBabyToken",
  "abi": [
    {
      "inputs": [
        {
          "internalType": "string",
          "name": "name_",
          "type": "string"
        },
        {
          "internalType": "string",
          "name": "symbol_",
          "type": "string"
        },
        {
          "internalType": "uint256",
          "name": "totalSupply_",
          "type": "uint256"
        },
        {
          "internalType": "address",
          "name": "rewardToken_",
          "type": "address"
        },
        {
          "internalType": "address",
          "name": "router_",
          "type": "address"
        },
        {
          "internalType": "uint256[5]",
          "name": "feeSettings_",
          "type": "uint256[5]"
        },
        {
          "internalType": "address",
          "name": "serviceFeeReceiver_",
          "type": "address"
        },
        {
          "internalType": "uint256",
          "name": "serviceFee_",
          "type": "uint256"
        }
      ],
      "stateMutability": "payable",
      "type": "constructor"
    },
    {
      "anonymous": false,
      "inputs": [
        {
          "indexed": true,
          "internalType": "address",
          "name": "owner",
          "type": "address"
        },
        {
          "indexed": true,
          "internalType": "address",
          "name": "spender",
          "type": "address"
        },
        {
          "indexed": false,
          "internalType": "uint256",
          "name": "value",
          "type": "uint256"
        }
      ],
      "name": "Approval",
      "type": "event"
    },
    {
      "anonymous": false,
      "inputs": [
        {
          "indexed": false,
          "internalType": "uint256",
          "name": "amountBNB",
          "type": "uint256"
        },
        {
          "indexed": false,
          "internalType": "uint256",
          "name": "amountBOG",
          "type": "uint256"
        }
      ],
      "name": "AutoLiquify",
      "type": "event"
    },
    {
      "anonymous": false,
      "inputs": [
        {
          "indexed": false,
          "internalType": "uint256",
          "name": "duration",
          "type": "uint256"
        }
      ],
      "name": "BuybackMultiplierActive",
      "type": "event"
    },
    {
      "anonymous": false,
      "inputs": [
        {
          "indexed": false,
          "internalType": "address",
          "name": "owner",
          "type": "address"
        }
      ],
      "name": "OwnershipTransferred",
      "type": "event"
    },
    {
      "anonymous": false,
      "inputs": [
        {
          "indexed": true,
          "internalType": "address",
          "name": "owner",
          "type": "address"
        },
        {
          "indexed": true,
          "internalType": "address",
          "name": "token",
          "type": "address"
        },
        {
          "indexed": false,
          "internalType": "enum Common.TokenType",
          "name": "tokenType",
          "type": "uint8"
        },
        {
          "indexed": false,
          "internalType": "uint256",
          "name": "version",
          "type": "uint256"
        }
      ],
      "name": "TokenCreated",
      "type": "event"
    },
    {
      "anonymous": false,
      "inputs": [
        {
          "indexed": true,
          "internalType": "address",
          "name": "from",
          "type": "address"
        },
        {
          "indexed": true,
          "internalType": "address",
          "name": "to",
          "type": "address"
        },
        {
          "indexed": false,
          "internalType": "uint256",
          "name": "value",
          "type": "uint256"
        }
      ],
      "name": "Transfer",
      "type": "event"
    },
    {
      "inputs": [],
      "name": "VERSION",
      "outputs": [
        {
          "internalType": "uint256",
          "name": "",
          "type": "uint256"
        }
      ],
      "stateMutability": "view",
      "type": "function"
    },
    {
      "inputs": [
        {
          "internalType": "address",
          "name": "adr",
          "type": "address"
        }
      ],
      "name": "authorize",
      "outputs": [],
      "stateMutability": "nonpayable",
      "type": "function"
    },
    {
      "inputs": [],
      "name": "autoBuybackAccumulator",
      "outputs": [
        {
          "internalType": "uint256",
          "name": "",
          "type": "uint256"
        }
      ],
      "stateMutability": "view",
      "type": "function"
    },
    {
      "inputs": [],
      "name": "autoBuybackAmount",
      "outputs": [
        {
          "internalType": "uint256",
          "name": "",
          "type": "uint256"
        }
      ],
      "stateMutability": "view",
      "type": "function"
    },
    {
      "inputs": [],
      "name": "autoBuybackBlockLast",
      "outputs": [
        {
          "internalType": "uint256",
          "name": "",
          "type": "uint256"
        }
      ],
      "stateMutability": "view",
      "type": "function"
    },
    {
      "inputs": [],
      "name": "autoBuybackBlockPeriod",
      "outputs": [
        {
          "internalType": "uint256",
          "name": "",
          "type": "uint256"
        }
      ],
      "stateMutability": "view",
      "type": "function"
    },
    {
      "inputs": [],
      "name": "autoBuybackCap",
      "outputs": [
        {
          "internalType": "uint256",
          "name": "",
          "type": "uint256"
        }
      ],
      "stateMutability": "view",
      "type": "function"
    },
    {
      "inputs": [],
      "name": "autoBuybackEnabled",
      "outputs": [
        {
          "internalType": "bool",
          "name": "",
          "type": "bool"
        }
      ],
      "stateMutability": "view",
      "type": "function"
    },
    {
      "inputs": [],
      "name": "autoLiquidityReceiver",
      "outputs": [
        {
          "internalType": "address",
          "name": "",
          "type": "address"
        }
      ],
      "stateMutability": "view",
      "type": "function"
    },
    {
      "inputs": [
        {
          "internalType": "address",
          "name": "",
          "type": "address"
        }
      ],
      "name": "buyBacker",
      "outputs": [
        {
          "internalType": "bool",
          "name": "",
          "type": "bool"
        }
      ],
      "stateMutability": "view",
      "type": "function"
    },
    {
      "inputs": [],
      "name": "buybackFee",
      "outputs": [
        {
          "internalType": "uint256",
          "name": "",
          "type": "uint256"
        }
      ],
      "stateMutability": "view",
      "type": "function"
    },
    {
      "inputs": [],
      "name": "buybackMultiplierDenominator",
      "outputs": [
        {
          "internalType": "uint256",
          "name": "",
          "type": "uint256"
        }
      ],
      "stateMutability": "view",
      "type": "function"
    },
    {
      "inputs": [],
      "name": "buybackMultiplierLength",
      "outputs": [
        {
          "internalType": "uint256",
          "name": "",
          "type": "uint256"
        }
      ],
      "stateMutability": "view",
      "type": "function"
    },
    {
      "inputs": [],
      "name": "buybackMultiplierNumerator",
      "outputs": [
        {
          "internalType": "uint256",
          "name": "",
          "type": "uint256"
        }
      ],
      "stateMutability": "view",
      "type": "function"
    },
    {
      "inputs": [],
      "name": "buybackMultiplierTriggeredAt",
      "outputs": [
        {
          "internalType": "uint256",
          "name": "",
          "type": "uint256"
        }
      ],
      "stateMutability": "view",
      "type": "function"
    },
    {
      "inputs": [],
      "name": "distributor",
      "outputs": [
        {
          "internalType": "contract DividendDistributor",
          "name": "",
          "type": "address"
        }
      ],
      "stateMutability": "view",
      "type": "function"
    },
    {
      "inputs": [],
      "name": "distributorGas",
      "outputs": [
        {
          "internalType": "uint256",
          "name": "",
          "type": "uint256"
        }
      ],
      "stateMutability": "view",
      "type": "function"
    },
    {
      "inputs": [],
      "name": "feeDenominator",
      "outputs": [
        {
          "internalType": "uint256",
          "name": "",
          "type": "uint256"
        }
      ],
      "stateMutability": "view",
      "type": "function"
    },
    {
      "inputs": [
        {
          "internalType": "address",
          "name": "adr",
          "type": "address"
        }
      ],
      "name": "isAuthorized",
      "outputs": [
        {
          "internalType": "bool",
          "name": "",
          "type": "bool"
        }
      ],
      "stateMutability": "view",
      "type": "function"
    },
    {
      "inputs": [
        {
          "internalType": "address",
          "name": "",
          "type": "address"
        }
      ],
      "name": "isDividendExempt",
      "outputs": [
        {
          "internalType": "bool",
          "name": "",
          "type": "bool"
        }
      ],
      "stateMutability": "view",
      "type": "function"
    },
    {
      "inputs": [
        {
          "internalType": "address",
          "name": "",
          "type": "address"
        }
      ],
      "name": "isFeeExempt",
      "outputs": [
        {
          "internalType": "bool",
          "name": "",
          "type": "bool"
        }
      ],
      "stateMutability": "view",
      "type": "function"
    },
    {
      "inputs": [
        {
          "internalType": "address",
          "name": "account",
          "type": "address"
        }
      ],
      "name": "isOwner",
      "outputs": [
        {
          "internalType": "bool",
          "name": "",
          "type": "bool"
        }
      ],
      "stateMutability": "view",
      "type": "function"
    },
    {
      "inputs": [],
      "name": "liquidityFee",
      "outputs": [
        {
          "internalType": "uint256",
          "name": "",
          "type": "uint256"
        }
      ],
      "stateMutability": "view",
      "type": "function"
    },
    {
      "inputs": [],
      "name": "marketingFee",
      "outputs": [
        {
          "internalType": "uint256",
          "name": "",
          "type": "uint256"
        }
      ],
      "stateMutability": "view",
      "type": "function"
    },
    {
      "inputs": [],
      "name": "marketingFeeReceiver",
      "outputs": [
        {
          "internalType": "address",
          "name": "",
          "type": "address"
        }
      ],
      "stateMutability": "view",
      "type": "function"
    },
    {
      "inputs": [],
      "name": "pair",
      "outputs": [
        {
          "internalType": "address",
          "name": "",
          "type": "address"
        }
      ],
      "stateMutability": "view",
      "type": "function"
    },
    {
      "inputs": [],
      "name": "reflectionFee",
      "outputs": [
        {
          "internalType": "uint256",
          "name": "",
          "type": "uint256"
        }
      ],
      "stateMutability": "view",
      "type": "function"
    },
    {
      "inputs": [],
      "name": "rewardToken",
      "outputs": [
        {
          "internalType": "address",
          "name": "",
          "type": "address"
        }
      ],
      "stateMutability": "view",
      "type": "function"
    },
    {
      "inputs": [],
      "name": "router",
      "outputs": [
        {
          "internalType": "contract IUniswapV2Router02",
          "name": "",
          "type": "address"
        }
      ],
      "stateMutability": "view",
      "type": "function"
    },
    {
      "inputs": [],
      "name": "swapEnabled",
      "outputs": [
        {
          "internalType": "bool",
          "name": "",
          "type": "bool"
        }
      ],
      "stateMutability": "view",
      "type": "function"
    },
    {
      "inputs": [],
      "name": "swapThreshold",
      "outputs": [
        {
          "internalType": "uint256",
          "name": "",
          "type": "uint256"
        }
      ],
      "stateMutability": "view",
      "type": "function"
    },
    {
      "inputs": [],
      "name": "targetLiquidity",
      "outputs": [
        {
          "internalType": "uint256",
          "name": "",
          "type": "uint256"
        }
      ],
      "stateMutability": "view",
      "type": "function"
    },
    {
      "inputs": [],
      "name": "targetLiquidityDenominator",
      "outputs": [
        {
          "internalType": "uint256",
          "name": "",
          "type": "uint256"
        }
      ],
      "stateMutability": "view",
      "type": "function"
    },
    {
      "inputs": [],
      "name": "totalFee",
      "outputs": [
        {
          "internalType": "uint256",
          "name": "",
          "type": "uint256"
        }
      ],
      "stateMutability": "view",
      "type": "function"
    },
    {
      "inputs": [
        {
          "internalType": "address payable",
          "name": "adr",
          "type": "address"
        }
      ],
      "name": "transferOwnership",
      "outputs": [],
      "stateMutability": "nonpayable",
      "type": "function"
    },
    {
      "inputs": [
        {
          "internalType": "address",
          "name": "adr",
          "type": "address"
        }
      ],
      "name": "unauthorize",
      "outputs": [],
      "stateMutability": "nonpayable",
      "type": "function"
    },
    {
      "stateMutability": "payable",
      "type": "receive"
    },
    {
      "inputs": [],
      "name": "totalSupply",
      "outputs": [
        {
          "internalType": "uint256",
          "name": "",
          "type": "uint256"
        }
      ],
      "stateMutability": "view",
      "type": "function"
    },
    {
      "inputs": [],
      "name": "decimals",
      "outputs": [
        {
          "internalType": "uint8",
          "name": "",
          "type": "uint8"
        }
      ],
      "stateMutability": "pure",
      "type": "function"
    },
    {
      "inputs": [],
      "name": "symbol",
      "outputs": [
        {
          "internalType": "string",
          "name": "",
          "type": "string"
        }
      ],
      "stateMutability": "view",
      "type": "function"
    },
    {
      "inputs": [],
      "name": "name",
      "outputs": [
        {
          "internalType": "string",
          "name": "",
          "type": "string"
        }
      ],
      "stateMutability": "view",
      "type": "function"
    },
    {
      "inputs": [
        {
          "internalType": "address",
          "name": "account",
          "type": "address"
        }
      ],
      "name": "balanceOf",
      "outputs": [
        {
          "internalType": "uint256",
          "name": "",
          "type": "uint256"
        }
      ],
      "stateMutability": "view",
      "type": "function"
    },
    {
      "inputs": [
        {
          "internalType": "address",
          "name": "holder",
          "type": "address"
        },
        {
          "internalType": "address",
          "name": "spender",
          "type": "address"
        }
      ],
      "name": "allowance",
      "outputs": [
        {
          "internalType": "uint256",
          "name": "",
          "type": "uint256"
        }
      ],
      "stateMutability": "view",
      "type": "function"
    },
    {
      "inputs": [
        {
          "internalType": "address",
          "name": "spender",
          "type": "address"
        },
        {
          "internalType": "uint256",
          "name": "amount",
          "type": "uint256"
        }
      ],
      "name": "approve",
      "outputs": [
        {
          "internalType": "bool",
          "name": "",
          "type": "bool"
        }
      ],
      "stateMutability": "nonpayable",
      "type": "function"
    },
    {
      "inputs": [
        {
          "internalType": "address",
          "name": "spender",
          "type": "address"
        }
      ],
      "name": "approveMax",
      "outputs": [
        {
          "internalType": "bool",
          "name": "",
          "type": "bool"
        }
      ],
      "stateMutability": "nonpayable",
      "type": "function"
    },
    {
      "inputs": [
        {
          "internalType": "address",
          "name": "recipient",
          "type": "address"
        },
        {
          "internalType": "uint256",
          "name": "amount",
          "type": "uint256"
        }
      ],
      "name": "transfer",
      "outputs": [
        {
          "internalType": "bool",
          "name": "",
          "type": "bool"
        }
      ],
      "stateMutability": "nonpayable",
      "type": "function"
    },
    {
      "inputs": [
        {
          "internalType": "address",
          "name": "sender",
          "type": "address"
        },
        {
          "internalType": "address",
          "name": "recipient",
          "type": "address"
        },
        {
          "internalType": "uint256",
          "name": "amount",
          "type": "uint256"
        }
      ],
      "name": "transferFrom",
      "outputs": [
        {
          "internalType": "bool",
          "name": "",
          "type": "bool"
        }
      ],
      "stateMutability": "nonpayable",
      "type": "function"
    },
    {
      "inputs": [
        {
          "internalType": "bool",
          "name": "selling",
          "type": "bool"
        }
      ],
      "name": "getTotalFee",
      "outputs": [
        {
          "internalType": "uint256",
          "name": "",
          "type": "uint256"
        }
      ],
      "stateMutability": "view",
      "type": "function"
    },
    {
      "inputs": [],
      "name": "getMultipliedFee",
      "outputs": [
        {
          "internalType": "uint256",
          "name": "",
          "type": "uint256"
        }
      ],
      "stateMutability": "view",
      "type": "function"
    },
    {
      "inputs": [
        {
          "internalType": "uint256",
          "name": "amount",
          "type": "uint256"
        },
        {
          "internalType": "bool",
          "name": "triggerBuybackMultiplier",
          "type": "bool"
        }
      ],
      "name": "triggerZeusBuyback",
      "outputs": [],
      "stateMutability": "nonpayable",
      "type": "function"
    },
    {
      "inputs": [],
      "name": "clearBuybackMultiplier",
      "outputs": [],
      "stateMutability": "nonpayable",
      "type": "function"
    },
    {
      "inputs": [
        {
          "internalType": "bool",
          "name": "_enabled",
          "type": "bool"
        },
        {
          "internalType": "uint256",
          "name": "_cap",
          "type": "uint256"
        },
        {
          "internalType": "uint256",
          "name": "_amount",
          "type": "uint256"
        },
        {
          "internalType": "uint256",
          "name": "_period",
          "type": "uint256"
        }
      ],
      "name": "setAutoBuybackSettings",
      "outputs": [],
      "stateMutability": "nonpayable",
      "type": "function"
    },
    {
      "inputs": [
        {
          "internalType": "uint256",
          "name": "numerator",
          "type": "uint256"
        },
        {
          "internalType": "uint256",
          "name": "denominator",
          "type": "uint256"
        },
        {
          "internalType": "uint256",
          "name": "length",
          "type": "uint256"
        }
      ],
      "name": "setBuybackMultiplierSettings",
      "outputs": [],
      "stateMutability": "nonpayable",
      "type": "function"
    },
    {
      "inputs": [
        {
          "internalType": "address",
          "name": "holder",
          "type": "address"
        },
        {
          "internalType": "bool",
          "name": "exempt",
          "type": "bool"
        }
      ],
      "name": "setIsDividendExempt",
      "outputs": [],
      "stateMutability": "nonpayable",
      "type": "function"
    },
    {
      "inputs": [
        {
          "internalType": "address",
          "name": "holder",
          "type": "address"
        },
        {
          "internalType": "bool",
          "name": "exempt",
          "type": "bool"
        }
      ],
      "name": "setIsFeeExempt",
      "outputs": [],
      "stateMutability": "nonpayable",
      "type": "function"
    },
    {
      "inputs": [
        {
          "internalType": "address",
          "name": "acc",
          "type": "address"
        },
        {
          "internalType": "bool",
          "name": "add",
          "type": "bool"
        }
      ],
      "name": "setBuyBacker",
      "outputs": [],
      "stateMutability": "nonpayable",
      "type": "function"
    },
    {
      "inputs": [
        {
          "internalType": "uint256",
          "name": "_liquidityFee",
          "type": "uint256"
        },
        {
          "internalType": "uint256",
          "name": "_buybackFee",
          "type": "uint256"
        },
        {
          "internalType": "uint256",
          "name": "_reflectionFee",
          "type": "uint256"
        },
        {
          "internalType": "uint256",
          "name": "_marketingFee",
          "type": "uint256"
        },
        {
          "internalType": "uint256",
          "name": "_feeDenominator",
          "type": "uint256"
        }
      ],
      "name": "setFees",
      "outputs": [],
      "stateMutability": "nonpayable",
      "type": "function"
    },
    {
      "inputs": [
        {
          "internalType": "address",
          "name": "_autoLiquidityReceiver",
          "type": "address"
        },
        {
          "internalType": "address",
          "name": "_marketingFeeReceiver",
          "type": "address"
        }
      ],
      "name": "setFeeReceivers",
      "outputs": [],
      "stateMutability": "nonpayable",
      "type": "function"
    },
    {
      "inputs": [
        {
          "internalType": "bool",
          "name": "_enabled",
          "type": "bool"
        },
        {
          "internalType": "uint256",
          "name": "_amount",
          "type": "uint256"
        }
      ],
      "name": "setSwapBackSettings",
      "outputs": [],
      "stateMutability": "nonpayable",
      "type": "function"
    },
    {
      "inputs": [
        {
          "internalType": "uint256",
          "name": "_target",
          "type": "uint256"
        },
        {
          "internalType": "uint256",
          "name": "_denominator",
          "type": "uint256"
        }
      ],
      "name": "setTargetLiquidity",
      "outputs": [],
      "stateMutability": "nonpayable",
      "type": "function"
    },
    {
      "inputs": [
        {
          "internalType": "uint256",
          "name": "_minPeriod",
          "type": "uint256"
        },
        {
          "internalType": "uint256",
          "name": "_minDistribution",
          "type": "uint256"
        }
      ],
      "name": "setDistributionCriteria",
      "outputs": [],
      "stateMutability": "nonpayable",
      "type": "function"
    },
    {
      "inputs": [
        {
          "internalType": "uint256",
          "name": "gas",
          "type": "uint256"
        }
      ],
      "name": "setDistributorSettings",
      "outputs": [],
      "stateMutability": "nonpayable",
      "type": "function"
    },
    {
      "inputs": [],
      "name": "getCirculatingSupply",
      "outputs": [
        {
          "internalType": "uint256",
          "name": "",
          "type": "uint256"
        }
      ],
      "stateMutability": "view",
      "type": "function"
    },
    {
      "inputs": [
        {
          "internalType": "uint256",
          "name": "accuracy",
          "type": "uint256"
        }
      ],
      "name": "getLiquidityBacking",
      "outputs": [
        {
          "internalType": "uint256",
          "name": "",
          "type": "uint256"
        }
      ],
      "stateMutability": "view",
      "type": "function"
    },
    {
      "inputs": [
        {
          "internalType": "uint256",
          "name": "target",
          "type": "uint256"
        },
        {
          "internalType": "uint256",
          "name": "accuracy",
          "type": "uint256"
        }
      ],
      "name": "isOverLiquified",
      "outputs": [
        {
          "internalType": "bool",
          "name": "",
          "type": "bool"
        }
      ],
      "stateMutability": "view",
      "type": "function"
    }
  ],
  "bytecode": "0x60806040526040516200809038038062008090833981810160405281019062000029919062000e13565b33806000806101000a81548173ffffffffffffffffffffffffffffffffffffffff021916908373ffffffffffffffffffffffffffffffffffffffff16021790555060018060008373ffffffffffffffffffffffffffffffffffffffff1673ffffffffffffffffffffffffffffffffffffffff16815260200190815260200160002060006101000a81548160ff021916908315150217905550508760029080519060200190620000da92919062000bf3565b508660039080519060200190620000f392919062000bf3565b508560048190555084600560006101000a81548173ffffffffffffffffffffffffffffffffffffffff021916908373ffffffffffffffffffffffffffffffffffffffff16021790555083600660006101000a81548173ffffffffffffffffffffffffffffffffffffffff021916908373ffffffffffffffffffffffffffffffffffffffff160217905550600660009054906101000a900473ffffffffffffffffffffffffffffffffffffffff1673ffffffffffffffffffffffffffffffffffffffff1663c45a01556040518163ffffffff1660e01b815260040160206040518083038186803b158015620001e657600080fd5b505afa158015620001fb573d6000803e3d6000fd5b505050506040513d601f19601f8201168201806040525081019062000221919062000de7565b73ffffffffffffffffffffffffffffffffffffffff1663c9c6539630600660009054906101000a900473ffffffffffffffffffffffffffffffffffffffff1673ffffffffffffffffffffffffffffffffffffffff1663ad5c46486040518163ffffffff1660e01b815260040160206040518083038186803b158015620002a657600080fd5b505afa158015620002bb573d6000803e3d6000fd5b505050506040513d601f19601f82011682018060405250810190620002e1919062000de7565b6040518363ffffffff1660e01b81526004016200030092919062000f64565b602060405180830381600087803b1580156200031b57600080fd5b505af115801562000330573d6000803e3d6000fd5b505050506040513d601f19601f8201168201806040525081019062000356919062000de7565b600760006101000a81548173ffffffffffffffffffffffffffffffffffffffff021916908373ffffffffffffffffffffffffffffffffffffffff160217905550338585604051620003a79062000c84565b620003b59392919062000f91565b604051809103906000f080158015620003d2573d6000803e3d6000fd5b50601c60006101000a81548173ffffffffffffffffffffffffffffffffffffffff021916908373ffffffffffffffffffffffffffffffffffffffff16021790555062000424836200098a60201b60201c565b6200043462000add60201b60201c565b6207a120601d819055506001601e60006101000a81548160ff021916908315150217905550614e206004546200046b919062001130565b601f819055506001602360003373ffffffffffffffffffffffffffffffffffffffff1673ffffffffffffffffffffffffffffffffffffffff16815260200190815260200160002060006101000a81548160ff021916908315150217905550600160246000600760009054906101000a900473ffffffffffffffffffffffffffffffffffffffff1673ffffffffffffffffffffffffffffffffffffffff1673ffffffffffffffffffffffffffffffffffffffff16815260200190815260200160002060006101000a81548160ff0219169083151502179055506001602460003073ffffffffffffffffffffffffffffffffffffffff1673ffffffffffffffffffffffffffffffffffffffff16815260200190815260200160002060006101000a81548160ff02191690831515021790555060016024600061dead73ffffffffffffffffffffffffffffffffffffffff1673ffffffffffffffffffffffffffffffffffffffff16815260200190815260200160002060006101000a81548160ff0219169083151502179055506001602260003373ffffffffffffffffffffffffffffffffffffffff1673ffffffffffffffffffffffffffffffffffffffff16815260200190815260200160002060006101000a81548160ff02191690831515021790555033600860006101000a81548173ffffffffffffffffffffffffffffffffffffffff021916908373ffffffffffffffffffffffffffffffffffffffff16021790555033600960006101000a81548173ffffffffffffffffffffffffffffffffffffffff021916908373ffffffffffffffffffffffffffffffffffffffff160217905550600454602160003073ffffffffffffffffffffffffffffffffffffffff1673ffffffffffffffffffffffffffffffffffffffff1681526020019081526020016000206000600660009054906101000a900473ffffffffffffffffffffffffffffffffffffffff1673ffffffffffffffffffffffffffffffffffffffff1673ffffffffffffffffffffffffffffffffffffffff16815260200190815260200160002081905550600454602160003073ffffffffffffffffffffffffffffffffffffffff1673ffffffffffffffffffffffffffffffffffffffff1681526020019081526020016000206000600760009054906101000a900473ffffffffffffffffffffffffffffffffffffffff1673ffffffffffffffffffffffffffffffffffffffff1673ffffffffffffffffffffffffffffffffffffffff16815260200190815260200160002081905550600454602060003373ffffffffffffffffffffffffffffffffffffffff1673ffffffffffffffffffffffffffffffffffffffff168152602001908152602001600020819055503373ffffffffffffffffffffffffffffffffffffffff16600073ffffffffffffffffffffffffffffffffffffffff167fddf252ad1be2c89b69c2b068fc378daa952ba7f163c4a11628f55a4df523b3ef600454604051620008c191906200101d565b60405180910390a33073ffffffffffffffffffffffffffffffffffffffff163373ffffffffffffffffffffffffffffffffffffffff167f56358b41df5fa59f5639228f0930994cbdde383c8a8fd74e06c04e1deebe3562600660016040516200092c92919062000fce565b60405180910390a38173ffffffffffffffffffffffffffffffffffffffff166108fc829081150290604051600060405180830381858888f193505050501580156200097b573d6000803e3d6000fd5b50505050505050505062001407565b62000ada81600060058110620009c9577f4e487b7100000000000000000000000000000000000000000000000000000000600052603260045260246000fd5b60200201518260016005811062000a09577f4e487b7100000000000000000000000000000000000000000000000000000000600052603260045260246000fd5b60200201518360026005811062000a49577f4e487b7100000000000000000000000000000000000000000000000000000000600052603260045260246000fd5b60200201518460036005811062000a89577f4e487b7100000000000000000000000000000000000000000000000000000000600052603260045260246000fd5b60200201518560046005811062000ac9577f4e487b7100000000000000000000000000000000000000000000000000000000600052603260045260246000fd5b602002015162000b0860201b60201c565b50565b6019601081905550606460118190555060c86012819055506064601381905550610708601581905550565b84600a8190555083600b8190555082600c8190555081600d8190555062000b708262000b5c8562000b48888a62000bdb60201b620024631790919060201c565b62000bdb60201b620024631790919060201c565b62000bdb60201b620024631790919060201c565b600e8190555080600f819055506004600f5462000b8e919062001130565b600e541062000bd4576040517f08c379a000000000000000000000000000000000000000000000000000000000815260040162000bcb9062000ffb565b60405180910390fd5b5050505050565b6000818362000beb9190620010d3565b905092915050565b82805462000c019062001205565b90600052602060002090601f01602090048101928262000c25576000855562000c71565b82601f1062000c4057805160ff191683800117855562000c71565b8280016001018555821562000c71579182015b8281111562000c7057825182559160200191906001019062000c53565b5b50905062000c80919062000c92565b5090565b6124b58062005bdb83390190565b5b8082111562000cad57600081600090555060010162000c93565b5090565b600062000cc862000cc28462001063565b6200103a565b9050808285602086028201111562000cdf57600080fd5b60005b8581101562000d13578162000cf8888262000dd0565b84526020840193506020830192505060018101905062000ce2565b5050509392505050565b600062000d3462000d2e846200108c565b6200103a565b90508281526020810184848401111562000d4d57600080fd5b62000d5a848285620011cf565b509392505050565b60008151905062000d7381620013d3565b92915050565b600082601f83011262000d8b57600080fd5b600562000d9a84828562000cb1565b91505092915050565b600082601f83011262000db557600080fd5b815162000dc784826020860162000d1d565b91505092915050565b60008151905062000de181620013ed565b92915050565b60006020828403121562000dfa57600080fd5b600062000e0a8482850162000d62565b91505092915050565b600080600080600080600080610180898b03121562000e3157600080fd5b600089015167ffffffffffffffff81111562000e4c57600080fd5b62000e5a8b828c0162000da3565b985050602089015167ffffffffffffffff81111562000e7857600080fd5b62000e868b828c0162000da3565b975050604062000e998b828c0162000dd0565b965050606062000eac8b828c0162000d62565b955050608062000ebf8b828c0162000d62565b94505060a062000ed28b828c0162000d79565b93505061014062000ee68b828c0162000d62565b92505061016062000efa8b828c0162000dd0565b9150509295985092959890939650565b62000f158162001168565b82525050565b62000f2681620011bb565b82525050565b600062000f3b603b83620010c2565b915062000f48826200136d565b604082019050919050565b62000f5e81620011b1565b82525050565b600060408201905062000f7b600083018562000f0a565b62000f8a602083018462000f0a565b9392505050565b600060608201905062000fa8600083018662000f0a565b62000fb7602083018562000f0a565b62000fc6604083018462000f0a565b949350505050565b600060408201905062000fe5600083018562000f1b565b62000ff4602083018462000f53565b9392505050565b60006020820190508181036000830152620010168162000f2c565b9050919050565b600060208201905062001034600083018462000f53565b92915050565b60006200104662001059565b90506200105482826200123b565b919050565b6000604051905090565b600067ffffffffffffffff8211156200108157620010806200132d565b5b602082029050919050565b600067ffffffffffffffff821115620010aa57620010a96200132d565b5b620010b5826200135c565b9050602081019050919050565b600082825260208201905092915050565b6000620010e082620011b1565b9150620010ed83620011b1565b9250827fffffffffffffffffffffffffffffffffffffffffffffffffffffffffffffffff0382111562001125576200112462001271565b5b828201905092915050565b60006200113d82620011b1565b91506200114a83620011b1565b9250826200115d576200115c620012a0565b5b828204905092915050565b6000620011758262001191565b9050919050565b60008190506200118c82620013bc565b919050565b600073ffffffffffffffffffffffffffffffffffffffff82169050919050565b6000819050919050565b6000620011c8826200117c565b9050919050565b60005b83811015620011ef578082015181840152602081019050620011d2565b83811115620011ff576000848401525b50505050565b600060028204905060018216806200121e57607f821691505b60208210811415620012355762001234620012fe565b5b50919050565b62001246826200135c565b810181811067ffffffffffffffff821117156200126857620012676200132d565b5b80604052505050565b7f4e487b7100000000000000000000000000000000000000000000000000000000600052601160045260246000fd5b7f4e487b7100000000000000000000000000000000000000000000000000000000600052601260045260246000fd5b7f4e487b7100000000000000000000000000000000000000000000000000000000600052602160045260246000fd5b7f4e487b7100000000000000000000000000000000000000000000000000000000600052602260045260246000fd5b7f4e487b7100000000000000000000000000000000000000000000000000000000600052604160045260246000fd5b6000601f19601f8301169050919050565b7f546f74616c206665652073686f756c64206e6f7420626520677265617465722060008201527f7468616e20312f34206f66206665652064656e6f6d696e61746f720000000000602082015250565b60088110620013d057620013cf620012cf565b5b50565b620013de8162001168565b8114620013ea57600080fd5b50565b620013f881620011b1565b81146200140457600080fd5b50565b6147c480620014176000396000f3fe6080604052600436106103c75760003560e01c806370a08231116101f2578063d51ed1c81161010d578063f1f3bca3116100a0578063f7c618c11161006f578063f7c618c114610e9f578063f887ea4014610eca578063fe9fbb8014610ef5578063ffa1ad7414610f32576103ce565b8063f1f3bca314610de7578063f2fde38b14610e24578063f5cfec0a14610e4d578063f708a64f14610e76576103ce565b8063e96fada2116100dc578063e96fada214610d2b578063ecbf666f14610d56578063eff0dc2214610d81578063f0b37c0414610dbe576103ce565b8063d51ed1c814610c5d578063d806d12f14610c9a578063dd62ed3e14610cc5578063df20fd4914610d02576103ce565b8063a4b45c0011610185578063b6a5d7de11610154578063b6a5d7de14610bb3578063b91854f414610bdc578063bfe1092814610c07578063ca33e64c14610c32576103ce565b8063a4b45c0014610b0b578063a8aa1b3114610b34578063a9059cbb14610b5f578063b210b06d14610b9c576103ce565b806392258ec8116101c157806392258ec814610a6157806395d89b4114610a8c57806398118cb414610ab75780639d1944f514610ae2576103ce565b806370a08231146109a357806383ad7994146109e05780638ab6ffc714610a0b578063921250d114610a36576103ce565b80632d48e896116102e2578063571ac8b011610275578063658d4b7f11610244578063658d4b7f146108f95780636b67c4df146109225780636ddd17131461094d5780636e78eb4914610978576103ce565b8063571ac8b01461083b578063591cf08d146108785780635a53c1fb146108a357806360e71962146108ce576103ce565b80633bb8a8d4116102b15780633bb8a8d41461076b5780633f4218e0146107965780634355855a146107d35780634896a63214610810576103ce565b80632d48e896146106af5780632f54bf6e146106d8578063313ce567146107155780633b2d081c14610740576103ce565b8063180b0d7e1161035a578063201e799111610329578063201e7991146105f55780632375ce401461061e57806323b872dd146106475780632b112e4914610684576103ce565b8063180b0d7e1461054957806318160ddd1461057457806319be947b1461059f5780631df4ccfc146105ca576103ce565b8063095ea7b311610396578063095ea7b31461047b5780631023d5d4146104b85780631161ae39146104e357806317d4358314610520576103ce565b80630445b667146103d3578063048c7baf146103fe57806304a66b481461042757806306fdde0314610450576103ce565b366103ce57005b600080fd5b3480156103df57600080fd5b506103e8610f5d565b6040516103f5919061424b565b60405180910390f35b34801561040a57600080fd5b5061042560048036038101906104209190613c1f565b610f63565b005b34801561043357600080fd5b5061044e60048036038101906104499190613dea565b610fef565b005b34801561045c57600080fd5b5061046561104b565b60405161047291906141a9565b60405180910390f35b34801561048757600080fd5b506104a2600480360381019061049d9190613b7e565b6110dd565b6040516104af919061410c565b60405180910390f35b3480156104c457600080fd5b506104cd6111cf565b6040516104da919061424b565b60405180910390f35b3480156104ef57600080fd5b5061050a60048036038101906105059190613d10565b6111d5565b604051610517919061410c565b60405180910390f35b34801561052c57600080fd5b5061054760048036038101906105429190613b42565b6111ea565b005b34801561055557600080fd5b5061055e61128d565b60405161056b919061424b565b60405180910390f35b34801561058057600080fd5b50610589611293565b604051610596919061424b565b60405180910390f35b3480156105ab57600080fd5b506105b461129d565b6040516105c1919061424b565b60405180910390f35b3480156105d657600080fd5b506105df6112a3565b6040516105ec919061424b565b60405180910390f35b34801561060157600080fd5b5061061c60048036038101906106179190613d10565b6112a9565b005b34801561062a57600080fd5b5061064560048036038101906106409190613d4c565b611303565b005b34801561065357600080fd5b5061066e60048036038101906106699190613af3565b611389565b60405161067b919061410c565b60405180910390f35b34801561069057600080fd5b5061069961156b565b6040516106a6919061424b565b60405180910390f35b3480156106bb57600080fd5b506106d660048036038101906106d19190613d10565b6115ac565b005b3480156106e457600080fd5b506106ff60048036038101906106fa9190613a3c565b611687565b60405161070c919061410c565b60405180910390f35b34801561072157600080fd5b5061072a6116e0565b60405161073791906142e9565b60405180910390f35b34801561074c57600080fd5b506107556116e9565b604051610762919061424b565b60405180910390f35b34801561077757600080fd5b506107806116ef565b60405161078d919061410c565b60405180910390f35b3480156107a257600080fd5b506107bd60048036038101906107b89190613a3c565b611702565b6040516107ca919061410c565b60405180910390f35b3480156107df57600080fd5b506107fa60048036038101906107f59190613a3c565b611722565b604051610807919061410c565b60405180910390f35b34801561081c57600080fd5b50610825611742565b604051610832919061424b565b60405180910390f35b34801561084757600080fd5b50610862600480360381019061085d9190613a3c565b611748565b60405161086f919061410c565b60405180910390f35b34801561088457600080fd5b5061088d61175d565b60405161089a919061424b565b60405180910390f35b3480156108af57600080fd5b506108b8611763565b6040516108c5919061424b565b60405180910390f35b3480156108da57600080fd5b506108e3611769565b6040516108f0919061424b565b60405180910390f35b34801561090557600080fd5b50610920600480360381019061091b9190613b42565b61176f565b005b34801561092e57600080fd5b50610937611812565b604051610944919061424b565b60405180910390f35b34801561095957600080fd5b50610962611818565b60405161096f919061410c565b60405180910390f35b34801561098457600080fd5b5061098d61182b565b60405161099a919061424b565b60405180910390f35b3480156109af57600080fd5b506109ca60048036038101906109c59190613a3c565b611831565b6040516109d7919061424b565b60405180910390f35b3480156109ec57600080fd5b506109f561187a565b604051610a02919061424b565b60405180910390f35b348015610a1757600080fd5b50610a20611880565b604051610a2d919061424b565b60405180910390f35b348015610a4257600080fd5b50610a4b611886565b604051610a58919061424b565b60405180910390f35b348015610a6d57600080fd5b50610a7661188c565b604051610a83919061424b565b60405180910390f35b348015610a9857600080fd5b50610aa1611892565b604051610aae91906141a9565b60405180910390f35b348015610ac357600080fd5b50610acc611924565b604051610ad9919061424b565b60405180910390f35b348015610aee57600080fd5b50610b096004803603810190610b049190613c82565b61192a565b005b348015610b1757600080fd5b50610b326004803603810190610b2d9190613ab7565b6119c1565b005b348015610b4057600080fd5b50610b49611a8f565b604051610b569190614023565b60405180910390f35b348015610b6b57600080fd5b50610b866004803603810190610b819190613b7e565b611ab5565b604051610b93919061410c565b60405180910390f35b348015610ba857600080fd5b50610bb1611aca565b005b348015610bbf57600080fd5b50610bda6004803603810190610bd59190613a3c565b611b1c565b005b348015610be857600080fd5b50610bf1611bbe565b604051610bfe919061424b565b60405180910390f35b348015610c1357600080fd5b50610c1c611bc4565b604051610c299190614127565b60405180910390f35b348015610c3e57600080fd5b50610c47611bea565b604051610c549190614023565b60405180910390f35b348015610c6957600080fd5b50610c846004803603810190610c7f9190613c82565b611c10565b604051610c91919061424b565b60405180910390f35b348015610ca657600080fd5b50610caf611c82565b604051610cbc919061424b565b60405180910390f35b348015610cd157600080fd5b50610cec6004803603810190610ce79190613ab7565b611d5f565b604051610cf9919061424b565b60405180910390f35b348015610d0e57600080fd5b50610d296004803603810190610d249190613be3565b611de6565b005b348015610d3757600080fd5b50610d40611e53565b604051610d4d9190614023565b60405180910390f35b348015610d6257600080fd5b50610d6b611e79565b604051610d78919061424b565b60405180910390f35b348015610d8d57600080fd5b50610da86004803603810190610da39190613a3c565b611e7f565b604051610db5919061410c565b60405180910390f35b348015610dca57600080fd5b50610de56004803603810190610de09190613a3c565b611e9f565b005b348015610df357600080fd5b50610e0e6004803603810190610e099190613bba565b611f42565b604051610e1b919061424b565b60405180910390f35b348015610e3057600080fd5b50610e4b6004803603810190610e469190613a8e565b611f64565b005b348015610e5957600080fd5b50610e746004803603810190610e6f9190613cd4565b61207d565b005b348015610e8257600080fd5b50610e9d6004803603810190610e989190613b42565b61211c565b005b348015610eab57600080fd5b50610eb46123bc565b604051610ec19190614023565b60405180910390f35b348015610ed657600080fd5b50610edf6123e2565b604051610eec9190614142565b60405180910390f35b348015610f0157600080fd5b50610f1c6004803603810190610f179190613a3c565b612408565b604051610f29919061410c565b60405180910390f35b348015610f3e57600080fd5b50610f4761245e565b604051610f54919061424b565b60405180910390f35b601f5481565b610f6c33612408565b610fab576040517f08c379a0000000000000000000000000000000000000000000000000000000008152600401610fa29061420b565b60405180910390fd5b83601660006101000a81548160ff0219169083151502179055508260178190555060006018819055508160198190555080601a8190555043601b8190555050505050565b610ff833612408565b611037576040517f08c379a000000000000000000000000000000000000000000000000000000000815260040161102e9061420b565b60405180910390fd5b6110448585858585612479565b5050505050565b60606002805461105a90614598565b80601f016020809104026020016040519081016040528092919081815260200182805461108690614598565b80156110d35780601f106110a8576101008083540402835291602001916110d3565b820191906000526020600020905b8154815290600101906020018083116110b657829003601f168201915b5050505050905090565b600081602160003373ffffffffffffffffffffffffffffffffffffffff1673ffffffffffffffffffffffffffffffffffffffff16815260200190815260200160002060008573ffffffffffffffffffffffffffffffffffffffff1673ffffffffffffffffffffffffffffffffffffffff168152602001908152602001600020819055508273ffffffffffffffffffffffffffffffffffffffff163373ffffffffffffffffffffffffffffffffffffffff167f8c5be1e5ebec7d5bd14f71427d1e84f3dd0314c0f7b2291e5b200ac8c7c3b925846040516111bd919061424b565b60405180910390a36001905092915050565b60155481565b6000826111e183611c10565b11905092915050565b6111f333612408565b611232576040517f08c379a00000000000000000000000000000000000000000000000000000000081526004016112299061420b565b60405180910390fd5b80602260008473ffffffffffffffffffffffffffffffffffffffff1673ffffffffffffffffffffffffffffffffffffffff16815260200190815260200160002060006101000a81548160ff0219169083151502179055505050565b600f5481565b6000600454905090565b60145481565b600e5481565b6112b233612408565b6112f1576040517f08c379a00000000000000000000000000000000000000000000000000000000081526004016112e89061420b565b60405180910390fd5b81601081905550806011819055505050565b61130c33612408565b61134b576040517f08c379a00000000000000000000000000000000000000000000000000000000081526004016113429061420b565b60405180910390fd5b6002828461135991906143af565b1115801561136657508183115b61136f57600080fd5b826012819055508160138190555080601581905550505050565b6000600454602160008673ffffffffffffffffffffffffffffffffffffffff1673ffffffffffffffffffffffffffffffffffffffff16815260200190815260200160002060003373ffffffffffffffffffffffffffffffffffffffff1673ffffffffffffffffffffffffffffffffffffffff1681526020019081526020016000205414611557576114d6826040518060400160405280601681526020017f496e73756666696369656e7420416c6c6f77616e636500000000000000000000815250602160008873ffffffffffffffffffffffffffffffffffffffff1673ffffffffffffffffffffffffffffffffffffffff16815260200190815260200160002060003373ffffffffffffffffffffffffffffffffffffffff1673ffffffffffffffffffffffffffffffffffffffff168152602001908152602001600020546125329092919063ffffffff16565b602160008673ffffffffffffffffffffffffffffffffffffffff1673ffffffffffffffffffffffffffffffffffffffff16815260200190815260200160002060003373ffffffffffffffffffffffffffffffffffffffff1673ffffffffffffffffffffffffffffffffffffffff168152602001908152602001600020819055505b611562848484612587565b90509392505050565b60006115a761157a6000611831565b61159961158861dead611831565b600454612acb90919063ffffffff16565b612acb90919063ffffffff16565b905090565b6115b533612408565b6115f4576040517f08c379a00000000000000000000000000000000000000000000000000000000081526004016115eb9061420b565b60405180910390fd5b601c60009054906101000a900473ffffffffffffffffffffffffffffffffffffffff1673ffffffffffffffffffffffffffffffffffffffff16632d48e89683836040518363ffffffff1660e01b81526004016116519291906142c0565b600060405180830381600087803b15801561166b57600080fd5b505af115801561167f573d6000803e3d6000fd5b505050505050565b60008060009054906101000a900473ffffffffffffffffffffffffffffffffffffffff1673ffffffffffffffffffffffffffffffffffffffff168273ffffffffffffffffffffffffffffffffffffffff16149050919050565b60006009905090565b600b5481565b601660009054906101000a900460ff1681565b60236020528060005260406000206000915054906101000a900460ff1681565b60246020528060005260406000206000915054906101000a900460ff1681565b60195481565b6000611756826004546110dd565b9050919050565b60175481565b601a5481565b601d5481565b61177833612408565b6117b7576040517f08c379a00000000000000000000000000000000000000000000000000000000081526004016117ae9061420b565b60405180910390fd5b80602360008473ffffffffffffffffffffffffffffffffffffffff1673ffffffffffffffffffffffffffffffffffffffff16815260200190815260200160002060006101000a81548160ff0219169083151502179055505050565b600d5481565b601e60009054906101000a900460ff1681565b60185481565b6000602060008373ffffffffffffffffffffffffffffffffffffffff1673ffffffffffffffffffffffffffffffffffffffff168152602001908152602001600020549050919050565b600c5481565b60115481565b60125481565b60105481565b6060600380546118a190614598565b80601f01602080910402602001604051908101604052809291908181526020018280546118cd90614598565b801561191a5780601f106118ef5761010080835404028352916020019161191a565b820191906000526020600020905b8154815290600101906020018083116118fd57829003601f168201915b5050505050905090565b600a5481565b61193333612408565b611972576040517f08c379a00000000000000000000000000000000000000000000000000000000081526004016119699061420b565b60405180910390fd5b620b71b081106119b7576040517f08c379a00000000000000000000000000000000000000000000000000000000081526004016119ae906141cb565b60405180910390fd5b80601d8190555050565b6119ca33612408565b611a09576040517f08c379a0000000000000000000000000000000000000000000000000000000008152600401611a009061420b565b60405180910390fd5b81600860006101000a81548173ffffffffffffffffffffffffffffffffffffffff021916908373ffffffffffffffffffffffffffffffffffffffff16021790555080600960006101000a81548173ffffffffffffffffffffffffffffffffffffffff021916908373ffffffffffffffffffffffffffffffffffffffff1602179055505050565b600760009054906101000a900473ffffffffffffffffffffffffffffffffffffffff1681565b6000611ac2338484612587565b905092915050565b611ad333612408565b611b12576040517f08c379a0000000000000000000000000000000000000000000000000000000008152600401611b099061420b565b60405180910390fd5b6000601481905550565b611b2533611687565b611b64576040517f08c379a0000000000000000000000000000000000000000000000000000000008152600401611b5b906141eb565b60405180910390fd5b60018060008373ffffffffffffffffffffffffffffffffffffffff1673ffffffffffffffffffffffffffffffffffffffff16815260200190815260200160002060006101000a81548160ff02191690831515021790555050565b601b5481565b601c60009054906101000a900473ffffffffffffffffffffffffffffffffffffffff1681565b600860009054906101000a900473ffffffffffffffffffffffffffffffffffffffff1681565b6000611c7b611c1d61156b565b611c6d611c5e6002611c50600760009054906101000a900473ffffffffffffffffffffffffffffffffffffffff16611831565b612ae190919063ffffffff16565b85612ae190919063ffffffff16565b612af790919063ffffffff16565b9050919050565b600042611c9c60155460145461246390919063ffffffff16565b1115611d56576000611ccd42611cbf60155460145461246390919063ffffffff16565b612acb90919063ffffffff16565b90506000611d10600e54611d02601354611cf4601254600e54612ae190919063ffffffff16565b612af790919063ffffffff16565b612acb90919063ffffffff16565b9050611d4d611d3c601554611d2e8585612ae190919063ffffffff16565b612af790919063ffffffff16565b600e5461246390919063ffffffff16565b92505050611d5c565b600e5490505b90565b6000602160008473ffffffffffffffffffffffffffffffffffffffff1673ffffffffffffffffffffffffffffffffffffffff16815260200190815260200160002060008373ffffffffffffffffffffffffffffffffffffffff1673ffffffffffffffffffffffffffffffffffffffff16815260200190815260200160002054905092915050565b611def33612408565b611e2e576040517f08c379a0000000000000000000000000000000000000000000000000000000008152600401611e259061420b565b60405180910390fd5b81601e60006101000a81548160ff02191690831515021790555080601f819055505050565b600960009054906101000a900473ffffffffffffffffffffffffffffffffffffffff1681565b60135481565b60226020528060005260406000206000915054906101000a900460ff1681565b611ea833611687565b611ee7576040517f08c379a0000000000000000000000000000000000000000000000000000000008152600401611ede906141eb565b60405180910390fd5b6000600160008373ffffffffffffffffffffffffffffffffffffffff1673ffffffffffffffffffffffffffffffffffffffff16815260200190815260200160002060006101000a81548160ff02191690831515021790555050565b60008115611f5957611f52611c82565b9050611f5f565b600e5490505b919050565b611f6d33611687565b611fac576040517f08c379a0000000000000000000000000000000000000000000000000000000008152600401611fa3906141eb565b60405180910390fd5b806000806101000a81548173ffffffffffffffffffffffffffffffffffffffff021916908373ffffffffffffffffffffffffffffffffffffffff16021790555060018060008373ffffffffffffffffffffffffffffffffffffffff1673ffffffffffffffffffffffffffffffffffffffff16815260200190815260200160002060006101000a81548160ff0219169083151502179055507f04dba622d284ed0014ee4b9a6a68386be1a4c08a4913ae272de89199cc68616381604051612072919061403e565b60405180910390a150565b61208633612408565b6120c5576040517f08c379a00000000000000000000000000000000000000000000000000000000081526004016120bc9061420b565b60405180910390fd5b6120d18261dead612b0d565b801561211857426014819055507f39d2389ec5c1fa77b2c0d374bc61b6d7bd97ccba280fcdeb4e9c7644898d7c3a60155460405161210f919061424b565b60405180910390a15b5050565b61212533612408565b612164576040517f08c379a000000000000000000000000000000000000000000000000000000000815260040161215b9061420b565b60405180910390fd5b3073ffffffffffffffffffffffffffffffffffffffff168273ffffffffffffffffffffffffffffffffffffffff16141580156121ee5750600760009054906101000a900473ffffffffffffffffffffffffffffffffffffffff1673ffffffffffffffffffffffffffffffffffffffff168273ffffffffffffffffffffffffffffffffffffffff1614155b6121f757600080fd5b80602460008473ffffffffffffffffffffffffffffffffffffffff1673ffffffffffffffffffffffffffffffffffffffff16815260200190815260200160002060006101000a81548160ff02191690831515021790555080156122e957601c60009054906101000a900473ffffffffffffffffffffffffffffffffffffffff1673ffffffffffffffffffffffffffffffffffffffff166314b6ca968360006040518363ffffffff1660e01b81526004016122b2929190614059565b600060405180830381600087803b1580156122cc57600080fd5b505af11580156122e0573d6000803e3d6000fd5b505050506123b8565b601c60009054906101000a900473ffffffffffffffffffffffffffffffffffffffff1673ffffffffffffffffffffffffffffffffffffffff166314b6ca9683602060008673ffffffffffffffffffffffffffffffffffffffff1673ffffffffffffffffffffffffffffffffffffffff168152602001908152602001600020546040518363ffffffff1660e01b8152600401612385929190614082565b600060405180830381600087803b15801561239f57600080fd5b505af11580156123b3573d6000803e3d6000fd5b505050505b5050565b600560009054906101000a900473ffffffffffffffffffffffffffffffffffffffff1681565b600660009054906101000a900473ffffffffffffffffffffffffffffffffffffffff1681565b6000600160008373ffffffffffffffffffffffffffffffffffffffff1673ffffffffffffffffffffffffffffffffffffffff16815260200190815260200160002060009054906101000a900460ff169050919050565b600181565b600081836124719190614359565b905092915050565b84600a8190555083600b8190555082600c8190555081600d819055506124cc826124be856124b0888a61246390919063ffffffff16565b61246390919063ffffffff16565b61246390919063ffffffff16565b600e8190555080600f819055506004600f546124e891906143af565b600e541061252b576040517f08c379a00000000000000000000000000000000000000000000000000000000081526004016125229061422b565b60405180910390fd5b5050505050565b600083831115829061257a576040517f08c379a000000000000000000000000000000000000000000000000000000000815260040161257191906141a9565b60405180910390fd5b5082840390509392505050565b6000602560009054906101000a900460ff16156125b0576125a9848484612dda565b9050612ac4565b6125b8612fad565b156125c6576125c5613084565b5b6125ce6136bd565b156125dc576125db613770565b5b612665826040518060400160405280601481526020017f496e73756666696369656e742042616c616e6365000000000000000000000000815250602060008873ffffffffffffffffffffffffffffffffffffffff1673ffffffffffffffffffffffffffffffffffffffff168152602001908152602001600020546125329092919063ffffffff16565b602060008673ffffffffffffffffffffffffffffffffffffffff1673ffffffffffffffffffffffffffffffffffffffff1681526020019081526020016000208190555060006126b3856137cc565b6126bd57826126c9565b6126c8858585613823565b5b905061271d81602060008773ffffffffffffffffffffffffffffffffffffffff1673ffffffffffffffffffffffffffffffffffffffff1681526020019081526020016000205461246390919063ffffffff16565b602060008673ffffffffffffffffffffffffffffffffffffffff1673ffffffffffffffffffffffffffffffffffffffff16815260200190815260200160002081905550602460008673ffffffffffffffffffffffffffffffffffffffff1673ffffffffffffffffffffffffffffffffffffffff16815260200190815260200160002060009054906101000a900460ff1661288357601c60009054906101000a900473ffffffffffffffffffffffffffffffffffffffff1673ffffffffffffffffffffffffffffffffffffffff166314b6ca9686602060008973ffffffffffffffffffffffffffffffffffffffff1673ffffffffffffffffffffffffffffffffffffffff168152602001908152602001600020546040518363ffffffff1660e01b815260040161284d929190614082565b600060405180830381600087803b15801561286757600080fd5b505af1925050508015612878575060015b61288157612882565b5b5b602460008573ffffffffffffffffffffffffffffffffffffffff1673ffffffffffffffffffffffffffffffffffffffff16815260200190815260200160002060009054906101000a900460ff166129a657601c60009054906101000a900473ffffffffffffffffffffffffffffffffffffffff1673ffffffffffffffffffffffffffffffffffffffff166314b6ca9685602060008873ffffffffffffffffffffffffffffffffffffffff1673ffffffffffffffffffffffffffffffffffffffff168152602001908152602001600020546040518363ffffffff1660e01b8152600401612970929190614082565b600060405180830381600087803b15801561298a57600080fd5b505af192505050801561299b575060015b6129a4576129a5565b5b5b601c60009054906101000a900473ffffffffffffffffffffffffffffffffffffffff1673ffffffffffffffffffffffffffffffffffffffff1663ffb2c479601d546040518263ffffffff1660e01b8152600401612a03919061424b565b602060405180830381600087803b158015612a1d57600080fd5b505af1925050508015612a4e57506040513d601f19601f82011682018060405250810190612a4b9190613cab565b60015b612a5757612a59565b505b8373ffffffffffffffffffffffffffffffffffffffff168573ffffffffffffffffffffffffffffffffffffffff167fddf252ad1be2c89b69c2b068fc378daa952ba7f163c4a11628f55a4df523b3ef83604051612ab6919061424b565b60405180910390a360019150505b9392505050565b60008183612ad9919061443a565b905092915050565b60008183612aef91906143e0565b905092915050565b60008183612b0591906143af565b905092915050565b6001602560006101000a81548160ff0219169083151502179055506000600267ffffffffffffffff811115612b6b577f4e487b7100000000000000000000000000000000000000000000000000000000600052604160045260246000fd5b604051908082528060200260200182016040528015612b995781602001602082028036833780820191505090505b509050600660009054906101000a900473ffffffffffffffffffffffffffffffffffffffff1673ffffffffffffffffffffffffffffffffffffffff1663ad5c46486040518163ffffffff1660e01b815260040160206040518083038186803b158015612c0457600080fd5b505afa158015612c18573d6000803e3d6000fd5b505050506040513d601f19601f82011682018060405250810190612c3c9190613a65565b81600081518110612c76577f4e487b7100000000000000000000000000000000000000000000000000000000600052603260045260246000fd5b602002602001019073ffffffffffffffffffffffffffffffffffffffff16908173ffffffffffffffffffffffffffffffffffffffff16815250503081600181518110612ceb577f4e487b7100000000000000000000000000000000000000000000000000000000600052603260045260246000fd5b602002602001019073ffffffffffffffffffffffffffffffffffffffff16908173ffffffffffffffffffffffffffffffffffffffff1681525050600660009054906101000a900473ffffffffffffffffffffffffffffffffffffffff1673ffffffffffffffffffffffffffffffffffffffff1663b6f9de958460008486426040518663ffffffff1660e01b8152600401612d88949392919061415d565b6000604051808303818588803b158015612da157600080fd5b505af1158015612db5573d6000803e3d6000fd5b5050505050506000602560006101000a81548160ff0219169083151502179055505050565b6000612e65826040518060400160405280601481526020017f496e73756666696369656e742042616c616e6365000000000000000000000000815250602060008873ffffffffffffffffffffffffffffffffffffffff1673ffffffffffffffffffffffffffffffffffffffff168152602001908152602001600020546125329092919063ffffffff16565b602060008673ffffffffffffffffffffffffffffffffffffffff1673ffffffffffffffffffffffffffffffffffffffff16815260200190815260200160002081905550612efa82602060008673ffffffffffffffffffffffffffffffffffffffff1673ffffffffffffffffffffffffffffffffffffffff1681526020019081526020016000205461246390919063ffffffff16565b602060008573ffffffffffffffffffffffffffffffffffffffff1673ffffffffffffffffffffffffffffffffffffffff168152602001908152602001600020819055508273ffffffffffffffffffffffffffffffffffffffff168473ffffffffffffffffffffffffffffffffffffffff167fddf252ad1be2c89b69c2b068fc378daa952ba7f163c4a11628f55a4df523b3ef84604051612f9a919061424b565b60405180910390a3600190509392505050565b6000600760009054906101000a900473ffffffffffffffffffffffffffffffffffffffff1673ffffffffffffffffffffffffffffffffffffffff163373ffffffffffffffffffffffffffffffffffffffff161415801561301a5750602560009054906101000a900460ff16155b80156130325750601e60009054906101000a900460ff165b801561307f5750601f54602060003073ffffffffffffffffffffffffffffffffffffffff1673ffffffffffffffffffffffffffffffffffffffff1681526020019081526020016000205410155b905090565b6001602560006101000a81548160ff02191690831515021790555060006130af6010546011546111d5565b6130bb57600a546130be565b60005b905060006130fe60026130f0600e546130e286601f54612ae190919063ffffffff16565b612af790919063ffffffff16565b612af790919063ffffffff16565b9050600061311782601f54612acb90919063ffffffff16565b90506000600267ffffffffffffffff81111561315c577f4e487b7100000000000000000000000000000000000000000000000000000000600052604160045260246000fd5b60405190808252806020026020018201604052801561318a5781602001602082028036833780820191505090505b50905030816000815181106131c8577f4e487b7100000000000000000000000000000000000000000000000000000000600052603260045260246000fd5b602002602001019073ffffffffffffffffffffffffffffffffffffffff16908173ffffffffffffffffffffffffffffffffffffffff1681525050600660009054906101000a900473ffffffffffffffffffffffffffffffffffffffff1673ffffffffffffffffffffffffffffffffffffffff1663ad5c46486040518163ffffffff1660e01b815260040160206040518083038186803b15801561326a57600080fd5b505afa15801561327e573d6000803e3d6000fd5b505050506040513d601f19601f820116820180604052508101906132a29190613a65565b816001815181106132dc577f4e487b7100000000000000000000000000000000000000000000000000000000600052603260045260246000fd5b602002602001019073ffffffffffffffffffffffffffffffffffffffff16908173ffffffffffffffffffffffffffffffffffffffff16815250506000479050600660009054906101000a900473ffffffffffffffffffffffffffffffffffffffff1673ffffffffffffffffffffffffffffffffffffffff1663791ac9478460008530426040518663ffffffff1660e01b815260040161337f959493929190614266565b600060405180830381600087803b15801561339957600080fd5b505af11580156133ad573d6000803e3d6000fd5b5050505060006133c68247612acb90919063ffffffff16565b905060006133f26133e1600289612af790919063ffffffff16565b600e54612acb90919063ffffffff16565b9050600061342e6002613420846134128c88612ae190919063ffffffff16565b612af790919063ffffffff16565b612af790919063ffffffff16565b905060006134598361344b600c5487612ae190919063ffffffff16565b612af790919063ffffffff16565b9050600061348484613476600d5488612ae190919063ffffffff16565b612af790919063ffffffff16565b9050601c60009054906101000a900473ffffffffffffffffffffffffffffffffffffffff1673ffffffffffffffffffffffffffffffffffffffff1663d0e30db0836040518263ffffffff1660e01b81526004016000604051808303818588803b1580156134f057600080fd5b505af193505050508015613502575060015b61350b5761350c565b5b600960009054906101000a900473ffffffffffffffffffffffffffffffffffffffff1673ffffffffffffffffffffffffffffffffffffffff166108fc829081150290604051600060405180830381858888f19350505050158015613574573d6000803e3d6000fd5b50600089111561369657600660009054906101000a900473ffffffffffffffffffffffffffffffffffffffff1673ffffffffffffffffffffffffffffffffffffffff1663f305d71984308c600080600860009054906101000a900473ffffffffffffffffffffffffffffffffffffffff16426040518863ffffffff1660e01b8152600401613607969594939291906140ab565b6060604051808303818588803b15801561362057600080fd5b505af1158015613634573d6000803e3d6000fd5b50505050506040513d601f19601f820116820180604052508101906136599190613d9b565b5050507f424db2872186fa7e7afa7a5e902ed3b49a2ef19c2f5431e672462495dd6b4506838a60405161368d9291906142c0565b60405180910390a15b505050505050505050506000602560006101000a81548160ff021916908315150217905550565b6000600760009054906101000a900473ffffffffffffffffffffffffffffffffffffffff1673ffffffffffffffffffffffffffffffffffffffff163373ffffffffffffffffffffffffffffffffffffffff161415801561372a5750602560009054906101000a900460ff16155b80156137425750601660009054906101000a900460ff165b801561375d575043601a54601b5461375a9190614359565b11155b801561376b57506019544710155b905090565b61377e60195461dead612b0d565b43601b8190555061379c60195460185461246390919063ffffffff16565b60188190555060175460185411156137ca576000601660006101000a81548160ff0219169083151502179055505b565b6000602360008373ffffffffffffffffffffffffffffffffffffffff1673ffffffffffffffffffffffffffffffffffffffff16815260200190815260200160002060009054906101000a900460ff16159050919050565b6000806138a5600f54613897613888600760009054906101000a900473ffffffffffffffffffffffffffffffffffffffff1673ffffffffffffffffffffffffffffffffffffffff168873ffffffffffffffffffffffffffffffffffffffff1614611f42565b86612ae190919063ffffffff16565b612af790919063ffffffff16565b90506138f981602060003073ffffffffffffffffffffffffffffffffffffffff1673ffffffffffffffffffffffffffffffffffffffff1681526020019081526020016000205461246390919063ffffffff16565b602060003073ffffffffffffffffffffffffffffffffffffffff1673ffffffffffffffffffffffffffffffffffffffff168152602001908152602001600020819055503073ffffffffffffffffffffffffffffffffffffffff168573ffffffffffffffffffffffffffffffffffffffff167fddf252ad1be2c89b69c2b068fc378daa952ba7f163c4a11628f55a4df523b3ef83604051613999919061424b565b60405180910390a36139b48184612acb90919063ffffffff16565b9150509392505050565b6000813590506139cd81614732565b92915050565b6000815190506139e281614732565b92915050565b6000813590506139f781614749565b92915050565b600081359050613a0c81614760565b92915050565b600081359050613a2181614777565b92915050565b600081519050613a3681614777565b92915050565b600060208284031215613a4e57600080fd5b6000613a5c848285016139be565b91505092915050565b600060208284031215613a7757600080fd5b6000613a85848285016139d3565b91505092915050565b600060208284031215613aa057600080fd5b6000613aae848285016139e8565b91505092915050565b60008060408385031215613aca57600080fd5b6000613ad8858286016139be565b9250506020613ae9858286016139be565b9150509250929050565b600080600060608486031215613b0857600080fd5b6000613b16868287016139be565b9350506020613b27868287016139be565b9250506040613b3886828701613a12565b9150509250925092565b60008060408385031215613b5557600080fd5b6000613b63858286016139be565b9250506020613b74858286016139fd565b9150509250929050565b60008060408385031215613b9157600080fd5b6000613b9f858286016139be565b9250506020613bb085828601613a12565b9150509250929050565b600060208284031215613bcc57600080fd5b6000613bda848285016139fd565b91505092915050565b60008060408385031215613bf657600080fd5b6000613c04858286016139fd565b9250506020613c1585828601613a12565b9150509250929050565b60008060008060808587031215613c3557600080fd5b6000613c43878288016139fd565b9450506020613c5487828801613a12565b9350506040613c6587828801613a12565b9250506060613c7687828801613a12565b91505092959194509250565b600060208284031215613c9457600080fd5b6000613ca284828501613a12565b91505092915050565b600060208284031215613cbd57600080fd5b6000613ccb84828501613a27565b91505092915050565b60008060408385031215613ce757600080fd5b6000613cf585828601613a12565b9250506020613d06858286016139fd565b9150509250929050565b60008060408385031215613d2357600080fd5b6000613d3185828601613a12565b9250506020613d4285828601613a12565b9150509250929050565b600080600060608486031215613d6157600080fd5b6000613d6f86828701613a12565b9350506020613d8086828701613a12565b9250506040613d9186828701613a12565b9150509250925092565b600080600060608486031215613db057600080fd5b6000613dbe86828701613a27565b9350506020613dcf86828701613a27565b9250506040613de086828701613a27565b9150509250925092565b600080600080600060a08688031215613e0257600080fd5b6000613e1088828901613a12565b9550506020613e2188828901613a12565b9450506040613e3288828901613a12565b9350506060613e4388828901613a12565b9250506080613e5488828901613a12565b9150509295509295909350565b6000613e6d8383613e88565b60208301905092915050565b613e82816144d5565b82525050565b613e918161446e565b82525050565b613ea08161446e565b82525050565b6000613eb182614314565b613ebb8185614337565b9350613ec683614304565b8060005b83811015613ef7578151613ede8882613e61565b9750613ee98361432a565b925050600181019050613eca565b5085935050505092915050565b613f0d81614492565b82525050565b613f1c816144e7565b82525050565b613f2b8161450b565b82525050565b613f3a8161452f565b82525050565b6000613f4b8261431f565b613f558185614348565b9350613f65818560208601614565565b613f6e81614657565b840191505092915050565b6000613f86601d83614348565b9150613f9182614668565b602082019050919050565b6000613fa9600683614348565b9150613fb482614691565b602082019050919050565b6000613fcc600b83614348565b9150613fd7826146ba565b602082019050919050565b6000613fef603b83614348565b9150613ffa826146e3565b604082019050919050565b61400e816144be565b82525050565b61401d816144c8565b82525050565b60006020820190506140386000830184613e97565b92915050565b60006020820190506140536000830184613e79565b92915050565b600060408201905061406e6000830185613e97565b61407b6020830184613f31565b9392505050565b60006040820190506140976000830185613e97565b6140a46020830184614005565b9392505050565b600060c0820190506140c06000830189613e97565b6140cd6020830188614005565b6140da6040830187613f31565b6140e76060830186613f31565b6140f46080830185613e97565b61410160a0830184614005565b979650505050505050565b60006020820190506141216000830184613f04565b92915050565b600060208201905061413c6000830184613f13565b92915050565b60006020820190506141576000830184613f22565b92915050565b60006080820190506141726000830187613f31565b81810360208301526141848186613ea6565b90506141936040830185613e97565b6141a06060830184614005565b95945050505050565b600060208201905081810360008301526141c38184613f40565b905092915050565b600060208201905081810360008301526141e481613f79565b9050919050565b6000602082019050818103600083015261420481613f9c565b9050919050565b6000602082019050818103600083015261422481613fbf565b9050919050565b6000602082019050818103600083015261424481613fe2565b9050919050565b60006020820190506142606000830184614005565b92915050565b600060a08201905061427b6000830188614005565b6142886020830187613f31565b818103604083015261429a8186613ea6565b90506142a96060830185613e97565b6142b66080830184614005565b9695505050505050565b60006040820190506142d56000830185614005565b6142e26020830184614005565b9392505050565b60006020820190506142fe6000830184614014565b92915050565b6000819050602082019050919050565b600081519050919050565b600081519050919050565b6000602082019050919050565b600082825260208201905092915050565b600082825260208201905092915050565b6000614364826144be565b915061436f836144be565b9250827fffffffffffffffffffffffffffffffffffffffffffffffffffffffffffffffff038211156143a4576143a36145ca565b5b828201905092915050565b60006143ba826144be565b91506143c5836144be565b9250826143d5576143d46145f9565b5b828204905092915050565b60006143eb826144be565b91506143f6836144be565b9250817fffffffffffffffffffffffffffffffffffffffffffffffffffffffffffffffff048311821515161561442f5761442e6145ca565b5b828202905092915050565b6000614445826144be565b9150614450836144be565b925082821015614463576144626145ca565b5b828203905092915050565b60006144798261449e565b9050919050565b600061448b8261449e565b9050919050565b60008115159050919050565b600073ffffffffffffffffffffffffffffffffffffffff82169050919050565b6000819050919050565b600060ff82169050919050565b60006144e082614541565b9050919050565b60006144f2826144f9565b9050919050565b60006145048261449e565b9050919050565b60006145168261451d565b9050919050565b60006145288261449e565b9050919050565b600061453a826144be565b9050919050565b600061454c82614553565b9050919050565b600061455e8261449e565b9050919050565b60005b83811015614583578082015181840152602081019050614568565b83811115614592576000848401525b50505050565b600060028204905060018216806145b057607f821691505b602082108114156145c4576145c3614628565b5b50919050565b7f4e487b7100000000000000000000000000000000000000000000000000000000600052601160045260246000fd5b7f4e487b7100000000000000000000000000000000000000000000000000000000600052601260045260246000fd5b7f4e487b7100000000000000000000000000000000000000000000000000000000600052602260045260246000fd5b6000601f19601f8301169050919050565b7f476173206d757374206265206c6f776572207468616e20373530303030000000600082015250565b7f214f574e45520000000000000000000000000000000000000000000000000000600082015250565b7f21415554484f52495a4544000000000000000000000000000000000000000000600082015250565b7f546f74616c206665652073686f756c64206e6f7420626520677265617465722060008201527f7468616e20312f34206f66206665652064656e6f6d696e61746f720000000000602082015250565b61473b8161446e565b811461474657600080fd5b50565b61475281614480565b811461475d57600080fd5b50565b61476981614492565b811461477457600080fd5b50565b614780816144be565b811461478b57600080fd5b5056fea26469706673582212204274e905bb8dec4335f4b186453f50be90d4dfa73ff5f15bc7043a3d2754fd1164736f6c6343000804003360806040523480156200001157600080fd5b50604051620024b5380380620024b58339818101604052810190620000379190620001d4565b336000806101000a81548173ffffffffffffffffffffffffffffffffffffffff021916908373ffffffffffffffffffffffffffffffffffffffff16021790555081600260006101000a81548173ffffffffffffffffffffffffffffffffffffffff021916908373ffffffffffffffffffffffffffffffffffffffff1602179055506ec097ce7bc90715b34b9f1000000000600c81905550610e10600d81905550600260009054906101000a900473ffffffffffffffffffffffffffffffffffffffff1673ffffffffffffffffffffffffffffffffffffffff1663313ce5676040518163ffffffff1660e01b815260040160206040518083038186803b1580156200014057600080fd5b505afa15801562000155573d6000803e3d6000fd5b505050506040513d601f19601f820116820180604052508101906200017b91906200022a565b600a620001899190620002b1565b6001620001979190620003ee565b600e819055505050506200050a565b600081519050620001b781620004d6565b92915050565b600081519050620001ce81620004f0565b92915050565b600080600060608486031215620001ea57600080fd5b6000620001fa86828701620001a6565b93505060206200020d86828701620001a6565b92505060406200022086828701620001a6565b9150509250925092565b6000602082840312156200023d57600080fd5b60006200024d84828501620001bd565b91505092915050565b6000808291508390505b6001851115620002a85780860481111562000280576200027f6200049a565b5b6001851615620002905780820291505b8081029050620002a085620004c9565b945062000260565b94509492505050565b6000620002be8262000483565b9150620002cb836200048d565b9250620002fa7fffffffffffffffffffffffffffffffffffffffffffffffffffffffffffffffff848462000302565b905092915050565b600082620003145760019050620003e7565b81620003245760009050620003e7565b81600181146200033d576002811462000348576200037e565b6001915050620003e7565b60ff8411156200035d576200035c6200049a565b5b8360020a9150848211156200037757620003766200049a565b5b50620003e7565b5060208310610133831016604e8410600b8410161715620003b85782820a905083811115620003b257620003b16200049a565b5b620003e7565b620003c7848484600162000256565b92509050818404811115620003e157620003e06200049a565b5b81810290505b9392505050565b6000620003fb8262000483565b9150620004088362000483565b9250817fffffffffffffffffffffffffffffffffffffffffffffffffffffffffffffffff04831182151516156200044457620004436200049a565b5b828202905092915050565b60006200045c8262000463565b9050919050565b600073ffffffffffffffffffffffffffffffffffffffff82169050919050565b6000819050919050565b600060ff82169050919050565b7f4e487b7100000000000000000000000000000000000000000000000000000000600052601160045260246000fd5b60008160011c9050919050565b620004e1816200044f565b8114620004ed57600080fd5b50565b620004fb816200048d565b81146200050757600080fd5b50565b611f9b806200051a6000396000f3fe60806040526004361061012a5760003560e01c8063ce7c2ac2116100ab578063efca2eed1161006f578063efca2eed146103eb578063f0fc6bca14610416578063f7c618c11461042d578063f887ea4014610458578063ffb2c47914610483578063ffd49c84146104c05761012a565b8063ce7c2ac21461030f578063d0e30db01461034e578063d4fda1f214610358578063e2d2e21914610395578063ecd0c0c3146103c05761012a565b80634fab0ae8116100f25780634fab0ae81461021457806366817df51461023f578063997664d71461027c578063ab377daa146102a7578063b2bdfa7b146102e45761012a565b806311ce023d1461012f57806314b6ca961461015a57806328fd3198146101835780632d48e896146101c05780633a98ef39146101e9575b600080fd5b34801561013b57600080fd5b506101446104eb565b6040516101519190611c37565b60405180910390f35b34801561016657600080fd5b50610181600480360381019061017c91906119ae565b6104f1565b005b34801561018f57600080fd5b506101aa60048036038101906101a5919061195c565b610808565b6040516101b79190611c37565b60405180910390f35b3480156101cc57600080fd5b506101e760048036038101906101e29190611a65565b610922565b005b3480156101f557600080fd5b506101fe61098c565b60405161020b9190611c37565b60405180910390f35b34801561022057600080fd5b50610229610992565b6040516102369190611c37565b60405180910390f35b34801561024b57600080fd5b506102666004803603810190610261919061195c565b610998565b6040516102739190611c37565b60405180910390f35b34801561028857600080fd5b506102916109b0565b60405161029e9190611c37565b60405180910390f35b3480156102b357600080fd5b506102ce60048036038101906102c99190611a13565b6109b6565b6040516102db9190611b71565b60405180910390f35b3480156102f057600080fd5b506102f96109f5565b6040516103069190611b71565b60405180910390f35b34801561031b57600080fd5b506103366004803603810190610331919061195c565b610a1b565b60405161034593929190611c52565b60405180910390f35b610356610a45565b005b34801561036457600080fd5b5061037f600480360381019061037a919061195c565b610f24565b60405161038c9190611c37565b60405180910390f35b3480156103a157600080fd5b506103aa610f3c565b6040516103b79190611c37565b60405180910390f35b3480156103cc57600080fd5b506103d5610f42565b6040516103e29190611b71565b60405180910390f35b3480156103f757600080fd5b50610400610f66565b60405161040d9190611c37565b60405180910390f35b34801561042257600080fd5b5061042b610f6c565b005b34801561043957600080fd5b50610442610f77565b60405161044f9190611bb5565b60405180910390f35b34801561046457600080fd5b5061046d610f9d565b60405161047a9190611bd0565b60405180910390f35b34801561048f57600080fd5b506104aa60048036038101906104a59190611a13565b610fc3565b6040516104b79190611c37565b60405180910390f35b3480156104cc57600080fd5b506104d5611201565b6040516104e29190611c37565b60405180910390f35b600c5481565b60008054906101000a900473ffffffffffffffffffffffffffffffffffffffff1673ffffffffffffffffffffffffffffffffffffffff163373ffffffffffffffffffffffffffffffffffffffff1614806105985750600160009054906101000a900473ffffffffffffffffffffffffffffffffffffffff1673ffffffffffffffffffffffffffffffffffffffff163373ffffffffffffffffffffffffffffffffffffffff16145b6105a157600080fd5b6000600760008473ffffffffffffffffffffffffffffffffffffffff1673ffffffffffffffffffffffffffffffffffffffff1681526020019081526020016000206000015411156105f6576105f582611207565b5b60008111801561064857506000600760008473ffffffffffffffffffffffffffffffffffffffff1673ffffffffffffffffffffffffffffffffffffffff16815260200190815260200160002060000154145b1561065b57610656826114ae565b6106bd565b6000811480156106ad57506000600760008473ffffffffffffffffffffffffffffffffffffffff1673ffffffffffffffffffffffffffffffffffffffff16815260200190815260200160002060000154115b156106bc576106bb8261155d565b5b5b61072681610718600760008673ffffffffffffffffffffffffffffffffffffffff1673ffffffffffffffffffffffffffffffffffffffff168152602001908152602001600020600001546008546117fc90919063ffffffff16565b61181290919063ffffffff16565b60088190555080600760008473ffffffffffffffffffffffffffffffffffffffff1673ffffffffffffffffffffffffffffffffffffffff168152602001908152602001600020600001819055506107be600760008473ffffffffffffffffffffffffffffffffffffffff1673ffffffffffffffffffffffffffffffffffffffff16815260200190815260200160002060000154611828565b600760008473ffffffffffffffffffffffffffffffffffffffff1673ffffffffffffffffffffffffffffffffffffffff168152602001908152602001600020600101819055505050565b600080600760008473ffffffffffffffffffffffffffffffffffffffff1673ffffffffffffffffffffffffffffffffffffffff16815260200190815260200160002060000154141561085d576000905061091d565b60006108aa600760008573ffffffffffffffffffffffffffffffffffffffff1673ffffffffffffffffffffffffffffffffffffffff16815260200190815260200160002060000154611828565b90506000600760008573ffffffffffffffffffffffffffffffffffffffff1673ffffffffffffffffffffffffffffffffffffffff1681526020019081526020016000206001015490508082116109055760009250505061091d565b61091881836117fc90919063ffffffff16565b925050505b919050565b60008054906101000a900473ffffffffffffffffffffffffffffffffffffffff1673ffffffffffffffffffffffffffffffffffffffff163373ffffffffffffffffffffffffffffffffffffffff161461097a57600080fd5b81600d8190555080600e819055505050565b60085481565b600e5481565b60066020528060005260406000206000915090505481565b60095481565b600481815481106109c657600080fd5b906000526020600020016000915054906101000a900473ffffffffffffffffffffffffffffffffffffffff1681565b600160009054906101000a900473ffffffffffffffffffffffffffffffffffffffff1681565b60076020528060005260406000206000915090508060000154908060010154908060020154905083565b60008054906101000a900473ffffffffffffffffffffffffffffffffffffffff1673ffffffffffffffffffffffffffffffffffffffff163373ffffffffffffffffffffffffffffffffffffffff1614610a9d57600080fd5b6000600260009054906101000a900473ffffffffffffffffffffffffffffffffffffffff1673ffffffffffffffffffffffffffffffffffffffff166370a08231306040518263ffffffff1660e01b8152600401610afa9190611b71565b60206040518083038186803b158015610b1257600080fd5b505afa158015610b26573d6000803e3d6000fd5b505050506040513d601f19601f82011682018060405250810190610b4a9190611a3c565b90506000600267ffffffffffffffff811115610b8f577f4e487b7100000000000000000000000000000000000000000000000000000000600052604160045260246000fd5b604051908082528060200260200182016040528015610bbd5781602001602082028036833780820191505090505b509050600360009054906101000a900473ffffffffffffffffffffffffffffffffffffffff1673ffffffffffffffffffffffffffffffffffffffff1663ad5c46486040518163ffffffff1660e01b815260040160206040518083038186803b158015610c2857600080fd5b505afa158015610c3c573d6000803e3d6000fd5b505050506040513d601f19601f82011682018060405250810190610c609190611985565b81600081518110610c9a577f4e487b7100000000000000000000000000000000000000000000000000000000600052603260045260246000fd5b602002602001019073ffffffffffffffffffffffffffffffffffffffff16908173ffffffffffffffffffffffffffffffffffffffff1681525050600260009054906101000a900473ffffffffffffffffffffffffffffffffffffffff1681600181518110610d31577f4e487b7100000000000000000000000000000000000000000000000000000000600052603260045260246000fd5b602002602001019073ffffffffffffffffffffffffffffffffffffffff16908173ffffffffffffffffffffffffffffffffffffffff1681525050600360009054906101000a900473ffffffffffffffffffffffffffffffffffffffff1673ffffffffffffffffffffffffffffffffffffffff1663b6f9de953460008430426040518663ffffffff1660e01b8152600401610dce9493929190611beb565b6000604051808303818588803b158015610de757600080fd5b505af1158015610dfb573d6000803e3d6000fd5b50505050506000610ebf83600260009054906101000a900473ffffffffffffffffffffffffffffffffffffffff1673ffffffffffffffffffffffffffffffffffffffff166370a08231306040518263ffffffff1660e01b8152600401610e619190611b71565b60206040518083038186803b158015610e7957600080fd5b505afa158015610e8d573d6000803e3d6000fd5b505050506040513d601f19601f82011682018060405250810190610eb19190611a3c565b6117fc90919063ffffffff16565b9050610ed68160095461181290919063ffffffff16565b600981905550610f19610f08600854610efa84600c5461185a90919063ffffffff16565b61187090919063ffffffff16565b600b5461181290919063ffffffff16565b600b81905550505050565b60056020528060005260406000206000915090505481565b600b5481565b60008054906101000a900473ffffffffffffffffffffffffffffffffffffffff1681565b600a5481565b610f7533611207565b565b600260009054906101000a900473ffffffffffffffffffffffffffffffffffffffff1681565b600360009054906101000a900473ffffffffffffffffffffffffffffffffffffffff1681565b60008060009054906101000a900473ffffffffffffffffffffffffffffffffffffffff1673ffffffffffffffffffffffffffffffffffffffff163373ffffffffffffffffffffffffffffffffffffffff16148061106d5750600160009054906101000a900473ffffffffffffffffffffffffffffffffffffffff1673ffffffffffffffffffffffffffffffffffffffff163373ffffffffffffffffffffffffffffffffffffffff16145b61107657600080fd5b6000600480549050905060008114156110935760009150506111fc565b6000805a9050600080600f5490505b86841080156110b057508482105b156111ec578481106110c157600090505b61112e600482815481106110fe577f4e487b7100000000000000000000000000000000000000000000000000000000600052603260045260246000fd5b9060005260206000200160009054906101000a900473ffffffffffffffffffffffffffffffffffffffff16611886565b156111a1576111a060048281548110611170577f4e487b7100000000000000000000000000000000000000000000000000000000600052603260045260246000fd5b9060005260206000200160009054906101000a900473ffffffffffffffffffffffffffffffffffffffff16611207565b5b6111c66111b75a856117fc90919063ffffffff16565b8561181290919063ffffffff16565b93505a925080806111d690611e79565b91505081806111e490611e79565b9250506110a2565b80600f8190555083955050505050505b919050565b600d5481565b6000600760008373ffffffffffffffffffffffffffffffffffffffff1673ffffffffffffffffffffffffffffffffffffffff168152602001908152602001600020600001541415611257576114ab565b600061126282610808565b905060008111156114a95761128281600a5461181290919063ffffffff16565b600a81905550600260009054906101000a900473ffffffffffffffffffffffffffffffffffffffff1673ffffffffffffffffffffffffffffffffffffffff1663a9059cbb83836040518363ffffffff1660e01b81526004016112e5929190611b8c565b602060405180830381600087803b1580156112ff57600080fd5b505af1158015611313573d6000803e3d6000fd5b505050506040513d601f19601f8201168201806040525081019061133791906119ea565b5042600660008473ffffffffffffffffffffffffffffffffffffffff1673ffffffffffffffffffffffffffffffffffffffff168152602001908152602001600020819055506113d181600760008573ffffffffffffffffffffffffffffffffffffffff1673ffffffffffffffffffffffffffffffffffffffff1681526020019081526020016000206002015461181290919063ffffffff16565b600760008473ffffffffffffffffffffffffffffffffffffffff1673ffffffffffffffffffffffffffffffffffffffff16815260200190815260200160002060020181905550611462600760008473ffffffffffffffffffffffffffffffffffffffff1673ffffffffffffffffffffffffffffffffffffffff16815260200190815260200160002060000154611828565b600760008473ffffffffffffffffffffffffffffffffffffffff1673ffffffffffffffffffffffffffffffffffffffff168152602001908152602001600020600101819055505b505b50565b600480549050600560008373ffffffffffffffffffffffffffffffffffffffff1673ffffffffffffffffffffffffffffffffffffffff168152602001908152602001600020819055506004819080600181540180825580915050600190039060005260206000200160009091909190916101000a81548173ffffffffffffffffffffffffffffffffffffffff021916908373ffffffffffffffffffffffffffffffffffffffff16021790555050565b600460016004805490506115719190611da3565b815481106115a8577f4e487b7100000000000000000000000000000000000000000000000000000000600052603260045260246000fd5b9060005260206000200160009054906101000a900473ffffffffffffffffffffffffffffffffffffffff166004600560008473ffffffffffffffffffffffffffffffffffffffff1673ffffffffffffffffffffffffffffffffffffffff168152602001908152602001600020548154811061164c577f4e487b7100000000000000000000000000000000000000000000000000000000600052603260045260246000fd5b9060005260206000200160006101000a81548173ffffffffffffffffffffffffffffffffffffffff021916908373ffffffffffffffffffffffffffffffffffffffff160217905550600560008273ffffffffffffffffffffffffffffffffffffffff1673ffffffffffffffffffffffffffffffffffffffff1681526020019081526020016000205460056000600460016004805490506116ec9190611da3565b81548110611723577f4e487b7100000000000000000000000000000000000000000000000000000000600052603260045260246000fd5b9060005260206000200160009054906101000a900473ffffffffffffffffffffffffffffffffffffffff1673ffffffffffffffffffffffffffffffffffffffff1673ffffffffffffffffffffffffffffffffffffffff1681526020019081526020016000208190555060048054806117c4577f4e487b7100000000000000000000000000000000000000000000000000000000600052603160045260246000fd5b6001900381819060005260206000200160006101000a81549073ffffffffffffffffffffffffffffffffffffffff0219169055905550565b6000818361180a9190611da3565b905092915050565b600081836118209190611cc2565b905092915050565b6000611853600c54611845600b548561185a90919063ffffffff16565b61187090919063ffffffff16565b9050919050565b600081836118689190611d49565b905092915050565b6000818361187e9190611d18565b905092915050565b600042600d54600660008573ffffffffffffffffffffffffffffffffffffffff1673ffffffffffffffffffffffffffffffffffffffff168152602001908152602001600020546118d69190611cc2565b1080156118ec5750600e546118ea83610808565b115b9050919050565b60008135905061190281611f20565b92915050565b60008151905061191781611f20565b92915050565b60008151905061192c81611f37565b92915050565b60008135905061194181611f4e565b92915050565b60008151905061195681611f4e565b92915050565b60006020828403121561196e57600080fd5b600061197c848285016118f3565b91505092915050565b60006020828403121561199757600080fd5b60006119a584828501611908565b91505092915050565b600080604083850312156119c157600080fd5b60006119cf858286016118f3565b92505060206119e085828601611932565b9150509250929050565b6000602082840312156119fc57600080fd5b6000611a0a8482850161191d565b91505092915050565b600060208284031215611a2557600080fd5b6000611a3384828501611932565b91505092915050565b600060208284031215611a4e57600080fd5b6000611a5c84828501611947565b91505092915050565b60008060408385031215611a7857600080fd5b6000611a8685828601611932565b9250506020611a9785828601611932565b9150509250929050565b6000611aad8383611ab9565b60208301905092915050565b611ac281611dd7565b82525050565b611ad181611dd7565b82525050565b6000611ae282611c99565b611aec8185611cb1565b9350611af783611c89565b8060005b83811015611b28578151611b0f8882611aa1565b9750611b1a83611ca4565b925050600181019050611afb565b5085935050505092915050565b611b3e81611e1f565b82525050565b611b4d81611e43565b82525050565b611b5c81611e67565b82525050565b611b6b81611e15565b82525050565b6000602082019050611b866000830184611ac8565b92915050565b6000604082019050611ba16000830185611ac8565b611bae6020830184611b62565b9392505050565b6000602082019050611bca6000830184611b35565b92915050565b6000602082019050611be56000830184611b44565b92915050565b6000608082019050611c006000830187611b53565b8181036020830152611c128186611ad7565b9050611c216040830185611ac8565b611c2e6060830184611b62565b95945050505050565b6000602082019050611c4c6000830184611b62565b92915050565b6000606082019050611c676000830186611b62565b611c746020830185611b62565b611c816040830184611b62565b949350505050565b6000819050602082019050919050565b600081519050919050565b6000602082019050919050565b600082825260208201905092915050565b6000611ccd82611e15565b9150611cd883611e15565b9250827fffffffffffffffffffffffffffffffffffffffffffffffffffffffffffffffff03821115611d0d57611d0c611ec2565b5b828201905092915050565b6000611d2382611e15565b9150611d2e83611e15565b925082611d3e57611d3d611ef1565b5b828204905092915050565b6000611d5482611e15565b9150611d5f83611e15565b9250817fffffffffffffffffffffffffffffffffffffffffffffffffffffffffffffffff0483118215151615611d9857611d97611ec2565b5b828202905092915050565b6000611dae82611e15565b9150611db983611e15565b925082821015611dcc57611dcb611ec2565b5b828203905092915050565b6000611de282611df5565b9050919050565b60008115159050919050565b600073ffffffffffffffffffffffffffffffffffffffff82169050919050565b6000819050919050565b6000611e2a82611e31565b9050919050565b6000611e3c82611df5565b9050919050565b6000611e4e82611e55565b9050919050565b6000611e6082611df5565b9050919050565b6000611e7282611e15565b9050919050565b6000611e8482611e15565b91507fffffffffffffffffffffffffffffffffffffffffffffffffffffffffffffffff821415611eb757611eb6611ec2565b5b600182019050919050565b7f4e487b7100000000000000000000000000000000000000000000000000000000600052601160045260246000fd5b7f4e487b7100000000000000000000000000000000000000000000000000000000600052601260045260246000fd5b611f2981611dd7565b8114611f3457600080fd5b50565b611f4081611de9565b8114611f4b57600080fd5b50565b611f5781611e15565b8114611f6257600080fd5b5056fea2646970667358221220903865b8558a8e05732b6d8cd38da4b9e8b828c544bf1841bd91f00f688f1f7664736f6c63430008040033",
  "immutableReferences": {},
  "source": "//SPDX-License-Identifier: MIT\r\n\r\npragma solidity ^0.8.0;\r\n\r\nimport \"./SafeMath.sol\";\r\nimport \"./IERC20Extended.sol\";\r\nimport \"./Auth.sol\";\r\nimport \"./BaseToken.sol\";\r\nimport \"./IUniswapV2Router02.sol\";\r\nimport \"./IUniswapV2Factory.sol\";\r\nimport \"./DividendDistributor.sol\";\r\nimport \"./Common.sol\";\r\n\r\ncontract BuybackBabyToken is IERC20Extended, Auth, BaseToken {\r\n    using SafeMath for uint256;\r\n\r\n    uint256 public constant VERSION = 1;\r\n\r\n    address private constant DEAD = address(0xdead);\r\n    address private constant ZERO = address(0);\r\n    uint8 private constant _decimals = 9;\r\n\r\n    string private _name;\r\n    string private _symbol;\r\n    uint256 private _totalSupply;\r\n\r\n    address public rewardToken;\r\n    IUniswapV2Router02 public router;\r\n    address public pair;\r\n    address public autoLiquidityReceiver;\r\n    address public marketingFeeReceiver;\r\n\r\n    uint256 public liquidityFee; // default: 200\r\n    uint256 public buybackFee; // default: 300\r\n    uint256 public reflectionFee; // default: 800\r\n    uint256 public marketingFee; // default: 100\r\n    uint256 public totalFee;\r\n    uint256 public feeDenominator; // default: 10000\r\n\r\n    uint256 public targetLiquidity; // default: 25\r\n    uint256 public targetLiquidityDenominator; // default: 100\r\n\r\n    uint256 public buybackMultiplierNumerator; // default: 200\r\n    uint256 public buybackMultiplierDenominator; // default: 100\r\n    uint256 public buybackMultiplierTriggeredAt;\r\n    uint256 public buybackMultiplierLength; // default: 30 mins\r\n\r\n    bool public autoBuybackEnabled;\r\n\r\n    uint256 public autoBuybackCap;\r\n    uint256 public autoBuybackAccumulator;\r\n    uint256 public autoBuybackAmount;\r\n    uint256 public autoBuybackBlockPeriod;\r\n    uint256 public autoBuybackBlockLast;\r\n\r\n    DividendDistributor public distributor;\r\n\r\n    uint256 public distributorGas;\r\n\r\n    bool public swapEnabled;\r\n    uint256 public swapThreshold;\r\n\r\n    mapping(address => uint256) private _balances;\r\n    mapping(address => mapping(address => uint256)) private _allowances;\r\n\r\n    mapping(address => bool) public buyBacker;\r\n    mapping(address => bool) public isFeeExempt;\r\n    mapping(address => bool) public isDividendExempt;\r\n\r\n    event AutoLiquify(uint256 amountBNB, uint256 amountBOG);\r\n    event BuybackMultiplierActive(uint256 duration);\r\n\r\n    bool inSwap;\r\n    modifier swapping() {\r\n        inSwap = true;\r\n        _;\r\n        inSwap = false;\r\n    }\r\n\r\n    modifier onlyBuybacker() {\r\n        require(buyBacker[msg.sender] == true, \"Not a buybacker\");\r\n        _;\r\n    }\r\n\r\n    constructor(\r\n        string memory name_,\r\n        string memory symbol_,\r\n        uint256 totalSupply_,\r\n        address rewardToken_,\r\n        address router_,\r\n        uint256[5] memory feeSettings_,\r\n        address serviceFeeReceiver_,\r\n        uint256 serviceFee_\r\n    ) payable Auth(msg.sender) {\r\n        _name = name_;\r\n        _symbol = symbol_;\r\n        _totalSupply = totalSupply_;\r\n\r\n        rewardToken = rewardToken_;\r\n        router = IUniswapV2Router02(router_);\r\n        pair = IUniswapV2Factory(router.factory()).createPair(\r\n            address(this),\r\n            router.WETH()\r\n        );\r\n        distributor = new DividendDistributor(msg.sender, rewardToken_, router_);\r\n\r\n        _initializeFees(feeSettings_);\r\n        _initializeLiquidityBuyBack();\r\n\r\n        distributorGas = 500000;\r\n        swapEnabled = true;\r\n        swapThreshold = _totalSupply / 20000; // 0.005%\r\n\r\n        isFeeExempt[msg.sender] = true;\r\n        isDividendExempt[pair] = true;\r\n        isDividendExempt[address(this)] = true;\r\n        isDividendExempt[DEAD] = true;\r\n        buyBacker[msg.sender] = true;\r\n\r\n        autoLiquidityReceiver = msg.sender;\r\n        marketingFeeReceiver = msg.sender;\r\n\r\n        _allowances[address(this)][address(router)] = _totalSupply;\r\n        _allowances[address(this)][address(pair)] = _totalSupply;\r\n\r\n        _balances[msg.sender] = _totalSupply;\r\n        emit Transfer(address(0), msg.sender, _totalSupply);\r\n\r\n        emit TokenCreated(\r\n            msg.sender,\r\n            address(this),\r\n            Common.TokenType.buybackBaby,\r\n            VERSION\r\n        );\r\n\r\n        payable(serviceFeeReceiver_).transfer(serviceFee_);\r\n    }\r\n\r\n    function _initializeFees(uint256[5] memory feeSettings_) internal {\r\n        _setFees(\r\n            feeSettings_[0], // liquidityFee\r\n            feeSettings_[1], // buybackFee\r\n            feeSettings_[2], // reflectionFee\r\n            feeSettings_[3], // marketingFee\r\n            feeSettings_[4] // feeDenominator\r\n        );\r\n    }\r\n\r\n    function _initializeLiquidityBuyBack() internal {\r\n        targetLiquidity = 25;\r\n        targetLiquidityDenominator = 100;\r\n\r\n        buybackMultiplierNumerator = 200;\r\n        buybackMultiplierDenominator = 100;\r\n        buybackMultiplierLength = 30 minutes;\r\n    }\r\n\r\n    receive() external payable {}\r\n\r\n    function totalSupply() external view override returns (uint256) {\r\n        return _totalSupply;\r\n    }\r\n\r\n    function decimals() external pure override returns (uint8) {\r\n        return _decimals;\r\n    }\r\n\r\n    function symbol() external view override returns (string memory) {\r\n        return _symbol;\r\n    }\r\n\r\n    function name() external view override returns (string memory) {\r\n        return _name;\r\n    }\r\n\r\n    function balanceOf(address account) public view override returns (uint256) {\r\n        return _balances[account];\r\n    }\r\n\r\n    function allowance(address holder, address spender)\r\n        external\r\n        view\r\n        override\r\n        returns (uint256)\r\n    {\r\n        return _allowances[holder][spender];\r\n    }\r\n\r\n    function approve(address spender, uint256 amount)\r\n        public\r\n        override\r\n        returns (bool)\r\n    {\r\n        _allowances[msg.sender][spender] = amount;\r\n        emit Approval(msg.sender, spender, amount);\r\n        return true;\r\n    }\r\n\r\n    function approveMax(address spender) external returns (bool) {\r\n        return approve(spender, _totalSupply);\r\n    }\r\n\r\n    function transfer(address recipient, uint256 amount)\r\n        external\r\n        override\r\n        returns (bool)\r\n    {\r\n        return _transferFrom(msg.sender, recipient, amount);\r\n    }\r\n\r\n    function transferFrom(\r\n        address sender,\r\n        address recipient,\r\n        uint256 amount\r\n    ) external override returns (bool) {\r\n        if (_allowances[sender][msg.sender] != _totalSupply) {\r\n            _allowances[sender][msg.sender] = _allowances[sender][msg.sender]\r\n                .sub(amount, \"Insufficient Allowance\");\r\n        }\r\n\r\n        return _transferFrom(sender, recipient, amount);\r\n    }\r\n\r\n    function _transferFrom(\r\n        address sender,\r\n        address recipient,\r\n        uint256 amount\r\n    ) internal returns (bool) {\r\n        if (inSwap) {\r\n            return _basicTransfer(sender, recipient, amount);\r\n        }\r\n\r\n        if (shouldSwapBack()) {\r\n            swapBack();\r\n        }\r\n        if (shouldAutoBuyback()) {\r\n            triggerAutoBuyback();\r\n        }\r\n\r\n        _balances[sender] = _balances[sender].sub(\r\n            amount,\r\n            \"Insufficient Balance\"\r\n        );\r\n\r\n        uint256 amountReceived = shouldTakeFee(sender)\r\n            ? takeFee(sender, recipient, amount)\r\n            : amount;\r\n\r\n        _balances[recipient] = _balances[recipient].add(amountReceived);\r\n\r\n        if (!isDividendExempt[sender]) {\r\n            try distributor.setShare(sender, _balances[sender]) {} catch {}\r\n        }\r\n        if (!isDividendExempt[recipient]) {\r\n            try\r\n                distributor.setShare(recipient, _balances[recipient])\r\n            {} catch {}\r\n        }\r\n\r\n        //This must be removed from the _transferFrom function, but due to you checking how much gas is left, you could leave this in,\r\n        //but just be aware that it would cause buy/sell transactions to use a lot more gas.\r\n        try distributor.process(distributorGas) {} catch {}\r\n\r\n        emit Transfer(sender, recipient, amountReceived);\r\n        return true;\r\n    }\r\n\r\n    function _basicTransfer(\r\n        address sender,\r\n        address recipient,\r\n        uint256 amount\r\n    ) internal returns (bool) {\r\n        _balances[sender] = _balances[sender].sub(\r\n            amount,\r\n            \"Insufficient Balance\"\r\n        );\r\n        _balances[recipient] = _balances[recipient].add(amount);\r\n        emit Transfer(sender, recipient, amount);\r\n        return true;\r\n    }\r\n\r\n    function shouldTakeFee(address sender) internal view returns (bool) {\r\n        return !isFeeExempt[sender];\r\n    }\r\n\r\n    function getTotalFee(bool selling) public view returns (uint256) {\r\n        if (selling) {\r\n            return getMultipliedFee();\r\n        }\r\n        return totalFee;\r\n    }\r\n\r\n    function getMultipliedFee() public view returns (uint256) {\r\n        if (\r\n            buybackMultiplierTriggeredAt.add(buybackMultiplierLength) >\r\n            block.timestamp\r\n        ) {\r\n            uint256 remainingTime = buybackMultiplierTriggeredAt\r\n                .add(buybackMultiplierLength)\r\n                .sub(block.timestamp);\r\n            uint256 feeIncrease = totalFee\r\n                .mul(buybackMultiplierNumerator)\r\n                .div(buybackMultiplierDenominator)\r\n                .sub(totalFee);\r\n            return\r\n                totalFee.add(\r\n                    feeIncrease.mul(remainingTime).div(buybackMultiplierLength)\r\n                );\r\n        }\r\n        return totalFee;\r\n    }\r\n\r\n    function takeFee(\r\n        address sender,\r\n        address receiver,\r\n        uint256 amount\r\n    ) internal returns (uint256) {\r\n        uint256 feeAmount = amount.mul(getTotalFee(receiver == pair)).div(\r\n            feeDenominator\r\n        );\r\n\r\n        _balances[address(this)] = _balances[address(this)].add(feeAmount);\r\n        emit Transfer(sender, address(this), feeAmount);\r\n\r\n        return amount.sub(feeAmount);\r\n    }\r\n\r\n    function shouldSwapBack() internal view returns (bool) {\r\n        return\r\n            msg.sender != pair &&\r\n            !inSwap &&\r\n            swapEnabled &&\r\n            _balances[address(this)] >= swapThreshold;\r\n    }\r\n\r\n    function swapBack() internal swapping {\r\n        uint256 dynamicLiquidityFee = isOverLiquified(\r\n            targetLiquidity,\r\n            targetLiquidityDenominator\r\n        )\r\n            ? 0\r\n            : liquidityFee;\r\n        uint256 amountToLiquify = swapThreshold\r\n            .mul(dynamicLiquidityFee)\r\n            .div(totalFee)\r\n            .div(2);\r\n        uint256 amountToSwap = swapThreshold.sub(amountToLiquify);\r\n\r\n        address[] memory path = new address[](2);\r\n        path[0] = address(this);\r\n        path[1] = router.WETH();\r\n        uint256 balanceBefore = address(this).balance;\r\n\r\n        router.swapExactTokensForETHSupportingFeeOnTransferTokens(\r\n            amountToSwap,\r\n            0,\r\n            path,\r\n            address(this),\r\n            block.timestamp\r\n        );\r\n\r\n        uint256 amountBNB = address(this).balance.sub(balanceBefore);\r\n\r\n        uint256 totalBNBFee = totalFee.sub(dynamicLiquidityFee.div(2));\r\n\r\n        uint256 amountBNBLiquidity = amountBNB\r\n            .mul(dynamicLiquidityFee)\r\n            .div(totalBNBFee)\r\n            .div(2);\r\n        uint256 amountBNBReflection = amountBNB.mul(reflectionFee).div(\r\n            totalBNBFee\r\n        );\r\n        uint256 amountBNBMarketing = amountBNB.mul(marketingFee).div(\r\n            totalBNBFee\r\n        );\r\n\r\n        try distributor.deposit{ value: amountBNBReflection }() {} catch {}\r\n        payable(marketingFeeReceiver).transfer(amountBNBMarketing);\r\n\r\n        if (amountToLiquify > 0) {\r\n            router.addLiquidityETH{ value: amountBNBLiquidity }(\r\n                address(this),\r\n                amountToLiquify,\r\n                0,\r\n                0,\r\n                autoLiquidityReceiver,\r\n                block.timestamp\r\n            );\r\n            emit AutoLiquify(amountBNBLiquidity, amountToLiquify);\r\n        }\r\n    }\r\n\r\n    function shouldAutoBuyback() internal view returns (bool) {\r\n        return\r\n            msg.sender != pair &&\r\n            !inSwap &&\r\n            autoBuybackEnabled &&\r\n            autoBuybackBlockLast + autoBuybackBlockPeriod <= block.number && // After N blocks from last buyback\r\n            address(this).balance >= autoBuybackAmount;\r\n    }\r\n\r\n    function triggerZeusBuyback(uint256 amount, bool triggerBuybackMultiplier)\r\n        external\r\n        authorized\r\n    {\r\n        buyTokens(amount, DEAD);\r\n        if (triggerBuybackMultiplier) {\r\n            buybackMultiplierTriggeredAt = block.timestamp;\r\n            emit BuybackMultiplierActive(buybackMultiplierLength);\r\n        }\r\n    }\r\n\r\n    function clearBuybackMultiplier() external authorized {\r\n        buybackMultiplierTriggeredAt = 0;\r\n    }\r\n\r\n    function triggerAutoBuyback() internal {\r\n        buyTokens(autoBuybackAmount, DEAD);\r\n        autoBuybackBlockLast = block.number;\r\n        autoBuybackAccumulator = autoBuybackAccumulator.add(autoBuybackAmount);\r\n        if (autoBuybackAccumulator > autoBuybackCap) {\r\n            autoBuybackEnabled = false;\r\n        }\r\n    }\r\n\r\n    function buyTokens(uint256 amount, address to) internal swapping {\r\n        address[] memory path = new address[](2);\r\n        path[0] = router.WETH();\r\n        path[1] = address(this);\r\n\r\n        router.swapExactETHForTokensSupportingFeeOnTransferTokens{\r\n            value: amount\r\n        }(0, path, to, block.timestamp);\r\n    }\r\n\r\n    function setAutoBuybackSettings(\r\n        bool _enabled,\r\n        uint256 _cap,\r\n        uint256 _amount,\r\n        uint256 _period\r\n    ) external authorized {\r\n        autoBuybackEnabled = _enabled;\r\n        autoBuybackCap = _cap;\r\n        autoBuybackAccumulator = 0;\r\n        autoBuybackAmount = _amount;\r\n        autoBuybackBlockPeriod = _period;\r\n        autoBuybackBlockLast = block.number;\r\n    }\r\n\r\n    function setBuybackMultiplierSettings(\r\n        uint256 numerator,\r\n        uint256 denominator,\r\n        uint256 length\r\n    ) external authorized {\r\n        require(numerator / denominator <= 2 && numerator > denominator);\r\n        buybackMultiplierNumerator = numerator;\r\n        buybackMultiplierDenominator = denominator;\r\n        buybackMultiplierLength = length;\r\n    }\r\n\r\n    function setIsDividendExempt(address holder, bool exempt)\r\n        external\r\n        authorized\r\n    {\r\n        require(holder != address(this) && holder != pair);\r\n        isDividendExempt[holder] = exempt;\r\n        if (exempt) {\r\n            distributor.setShare(holder, 0);\r\n        } else {\r\n            distributor.setShare(holder, _balances[holder]);\r\n        }\r\n    }\r\n\r\n    function setIsFeeExempt(address holder, bool exempt) external authorized {\r\n        isFeeExempt[holder] = exempt;\r\n    }\r\n\r\n    function setBuyBacker(address acc, bool add) external authorized {\r\n        buyBacker[acc] = add;\r\n    }\r\n\r\n    function setFees(\r\n        uint256 _liquidityFee,\r\n        uint256 _buybackFee,\r\n        uint256 _reflectionFee,\r\n        uint256 _marketingFee,\r\n        uint256 _feeDenominator\r\n    ) public authorized {\r\n        _setFees(\r\n            _liquidityFee,\r\n            _buybackFee,\r\n            _reflectionFee,\r\n            _marketingFee,\r\n            _feeDenominator\r\n        );\r\n    }\r\n\r\n    function _setFees(\r\n        uint256 _liquidityFee,\r\n        uint256 _buybackFee,\r\n        uint256 _reflectionFee,\r\n        uint256 _marketingFee,\r\n        uint256 _feeDenominator\r\n    ) internal {\r\n        liquidityFee = _liquidityFee;\r\n        buybackFee = _buybackFee;\r\n        reflectionFee = _reflectionFee;\r\n        marketingFee = _marketingFee;\r\n        totalFee = _liquidityFee.add(_buybackFee).add(_reflectionFee).add(\r\n            _marketingFee\r\n        );\r\n        feeDenominator = _feeDenominator;\r\n        require(\r\n            totalFee < feeDenominator / 4,\r\n            \"Total fee should not be greater than 1/4 of fee denominator\"\r\n        );\r\n    }\r\n\r\n    function setFeeReceivers(\r\n        address _autoLiquidityReceiver,\r\n        address _marketingFeeReceiver\r\n    ) external authorized {\r\n        autoLiquidityReceiver = _autoLiquidityReceiver;\r\n        marketingFeeReceiver = _marketingFeeReceiver;\r\n    }\r\n\r\n    function setSwapBackSettings(bool _enabled, uint256 _amount)\r\n        external\r\n        authorized\r\n    {\r\n        swapEnabled = _enabled;\r\n        swapThreshold = _amount;\r\n    }\r\n\r\n    function setTargetLiquidity(uint256 _target, uint256 _denominator)\r\n        external\r\n        authorized\r\n    {\r\n        targetLiquidity = _target;\r\n        targetLiquidityDenominator = _denominator;\r\n    }\r\n\r\n    function setDistributionCriteria(\r\n        uint256 _minPeriod,\r\n        uint256 _minDistribution\r\n    ) external authorized {\r\n        distributor.setDistributionCriteria(_minPeriod, _minDistribution);\r\n    }\r\n\r\n    function setDistributorSettings(uint256 gas) external authorized {\r\n        require(gas < 750000, \"Gas must be lower than 750000\");\r\n        distributorGas = gas;\r\n    }\r\n\r\n    function getCirculatingSupply() public view returns (uint256) {\r\n        return _totalSupply.sub(balanceOf(DEAD)).sub(balanceOf(ZERO));\r\n    }\r\n\r\n    function getLiquidityBacking(uint256 accuracy)\r\n        public\r\n        view\r\n        returns (uint256)\r\n    {\r\n        return accuracy.mul(balanceOf(pair).mul(2)).div(getCirculatingSupply());\r\n    }\r\n\r\n    function isOverLiquified(uint256 target, uint256 accuracy)\r\n        public\r\n        view\r\n        returns (bool)\r\n    {\r\n        return getLiquidityBacking(accuracy) > target;\r\n    }\r\n}",
  "sourcePath": "C:\\Users\\azamo\\OneDrive\\Projects\\BUSDMETA\\contracts\\BUSDMETA.sol",
  "compiler": {
    "name": "solc",
    "version": "0.8.4+commit.c7e474f2.Emscripten.clang"
  },
  "schemaVersion": "3.4.4",
  "updatedAt": "2022-02-27T02:02:51.960Z",
  "devdoc": {
    "kind": "dev",
    "methods": {},
    "version": 1
  },
  "userdoc": {
    "kind": "user",
    "methods": {
      "authorize(address)": {
        "notice": "Authorize address. Owner only"
      },
      "isAuthorized(address)": {
        "notice": "Return address' authorization status"
      },
      "isOwner(address)": {
        "notice": "Check if address is owner"
      },
      "transferOwnership(address)": {
        "notice": "Transfer ownership to new address. Caller must be owner. Leaves old owner authorized"
      },
      "unauthorize(address)": {
        "notice": "Remove address' authorization. Owner only"
      }
    },
    "version": 1
  }
}