{
  "contractName": "DividendDistributor",
  "abi": [
    {
      "inputs": [
        {
          "internalType": "address",
          "name": "owner_",
          "type": "address"
        },
        {
          "internalType": "address",
          "name": "rewardToken_",
          "type": "address"
        },
        {
          "internalType": "address",
          "name": "router_",
          "type": "address"
        }
      ],
      "stateMutability": "nonpayable",
      "type": "constructor"
    },
    {
      "inputs": [],
      "name": "_owner",
      "outputs": [
        {
          "internalType": "address",
          "name": "",
          "type": "address"
        }
      ],
      "stateMutability": "view",
      "type": "function",
      "constant": true
    },
    {
      "inputs": [],
      "name": "_token",
      "outputs": [
        {
          "internalType": "address",
          "name": "",
          "type": "address"
        }
      ],
      "stateMutability": "view",
      "type": "function",
      "constant": true
    },
    {
      "inputs": [],
      "name": "dividendsPerShare",
      "outputs": [
        {
          "internalType": "uint256",
          "name": "",
          "type": "uint256"
        }
      ],
      "stateMutability": "view",
      "type": "function",
      "constant": true
    },
    {
      "inputs": [],
      "name": "dividendsPerShareAccuracyFactor",
      "outputs": [
        {
          "internalType": "uint256",
          "name": "",
          "type": "uint256"
        }
      ],
      "stateMutability": "view",
      "type": "function",
      "constant": true
    },
    {
      "inputs": [],
      "name": "minDistribution",
      "outputs": [
        {
          "internalType": "uint256",
          "name": "",
          "type": "uint256"
        }
      ],
      "stateMutability": "view",
      "type": "function",
      "constant": true
    },
    {
      "inputs": [],
      "name": "minPeriod",
      "outputs": [
        {
          "internalType": "uint256",
          "name": "",
          "type": "uint256"
        }
      ],
      "stateMutability": "view",
      "type": "function",
      "constant": true
    },
    {
      "inputs": [],
      "name": "rewardToken",
      "outputs": [
        {
          "internalType": "contract IERC20Extended",
          "name": "",
          "type": "address"
        }
      ],
      "stateMutability": "view",
      "type": "function",
      "constant": true
    },
    {
      "inputs": [],
      "name": "router",
      "outputs": [
        {
          "internalType": "contract IUniswapV2Router02",
          "name": "",
          "type": "address"
        }
      ],
      "stateMutability": "view",
      "type": "function",
      "constant": true
    },
    {
      "inputs": [
        {
          "internalType": "address",
          "name": "",
          "type": "address"
        }
      ],
      "name": "shareholderClaims",
      "outputs": [
        {
          "internalType": "uint256",
          "name": "",
          "type": "uint256"
        }
      ],
      "stateMutability": "view",
      "type": "function",
      "constant": true
    },
    {
      "inputs": [
        {
          "internalType": "address",
          "name": "",
          "type": "address"
        }
      ],
      "name": "shareholderIndexes",
      "outputs": [
        {
          "internalType": "uint256",
          "name": "",
          "type": "uint256"
        }
      ],
      "stateMutability": "view",
      "type": "function",
      "constant": true
    },
    {
      "inputs": [
        {
          "internalType": "uint256",
          "name": "",
          "type": "uint256"
        }
      ],
      "name": "shareholders",
      "outputs": [
        {
          "internalType": "address",
          "name": "",
          "type": "address"
        }
      ],
      "stateMutability": "view",
      "type": "function",
      "constant": true
    },
    {
      "inputs": [
        {
          "internalType": "address",
          "name": "",
          "type": "address"
        }
      ],
      "name": "shares",
      "outputs": [
        {
          "internalType": "uint256",
          "name": "amount",
          "type": "uint256"
        },
        {
          "internalType": "uint256",
          "name": "totalExcluded",
          "type": "uint256"
        },
        {
          "internalType": "uint256",
          "name": "totalRealised",
          "type": "uint256"
        }
      ],
      "stateMutability": "view",
      "type": "function",
      "constant": true
    },
    {
      "inputs": [],
      "name": "totalDistributed",
      "outputs": [
        {
          "internalType": "uint256",
          "name": "",
          "type": "uint256"
        }
      ],
      "stateMutability": "view",
      "type": "function",
      "constant": true
    },
    {
      "inputs": [],
      "name": "totalDividends",
      "outputs": [
        {
          "internalType": "uint256",
          "name": "",
          "type": "uint256"
        }
      ],
      "stateMutability": "view",
      "type": "function",
      "constant": true
    },
    {
      "inputs": [],
      "name": "totalShares",
      "outputs": [
        {
          "internalType": "uint256",
          "name": "",
          "type": "uint256"
        }
      ],
      "stateMutability": "view",
      "type": "function",
      "constant": true
    },
    {
      "inputs": [
        {
          "internalType": "uint256",
          "name": "_minPeriod",
          "type": "uint256"
        },
        {
          "internalType": "uint256",
          "name": "_minDistribution",
          "type": "uint256"
        }
      ],
      "name": "setDistributionCriteria",
      "outputs": [],
      "stateMutability": "nonpayable",
      "type": "function"
    },
    {
      "inputs": [
        {
          "internalType": "address",
          "name": "shareholder",
          "type": "address"
        },
        {
          "internalType": "uint256",
          "name": "amount",
          "type": "uint256"
        }
      ],
      "name": "setShare",
      "outputs": [],
      "stateMutability": "nonpayable",
      "type": "function"
    },
    {
      "inputs": [],
      "name": "deposit",
      "outputs": [],
      "stateMutability": "payable",
      "type": "function",
      "payable": true
    },
    {
      "inputs": [
        {
          "internalType": "uint256",
          "name": "gas",
          "type": "uint256"
        }
      ],
      "name": "process",
      "outputs": [
        {
          "internalType": "uint256",
          "name": "",
          "type": "uint256"
        }
      ],
      "stateMutability": "nonpayable",
      "type": "function"
    },
    {
      "inputs": [],
      "name": "claimDividend",
      "outputs": [],
      "stateMutability": "nonpayable",
      "type": "function"
    },
    {
      "inputs": [
        {
          "internalType": "address",
          "name": "shareholder",
          "type": "address"
        }
      ],
      "name": "getUnpaidEarnings",
      "outputs": [
        {
          "internalType": "uint256",
          "name": "",
          "type": "uint256"
        }
      ],
      "stateMutability": "view",
      "type": "function",
      "constant": true
    }
  ],
  "bytecode": "0x60806040523480156200001157600080fd5b50604051620024b5380380620024b58339818101604052810190620000379190620001d4565b336000806101000a81548173ffffffffffffffffffffffffffffffffffffffff021916908373ffffffffffffffffffffffffffffffffffffffff16021790555081600260006101000a81548173ffffffffffffffffffffffffffffffffffffffff021916908373ffffffffffffffffffffffffffffffffffffffff1602179055506ec097ce7bc90715b34b9f1000000000600c81905550610e10600d81905550600260009054906101000a900473ffffffffffffffffffffffffffffffffffffffff1673ffffffffffffffffffffffffffffffffffffffff1663313ce5676040518163ffffffff1660e01b815260040160206040518083038186803b1580156200014057600080fd5b505afa15801562000155573d6000803e3d6000fd5b505050506040513d601f19601f820116820180604052508101906200017b91906200022a565b600a620001899190620002b1565b6001620001979190620003ee565b600e819055505050506200050a565b600081519050620001b781620004d6565b92915050565b600081519050620001ce81620004f0565b92915050565b600080600060608486031215620001ea57600080fd5b6000620001fa86828701620001a6565b93505060206200020d86828701620001a6565b92505060406200022086828701620001a6565b9150509250925092565b6000602082840312156200023d57600080fd5b60006200024d84828501620001bd565b91505092915050565b6000808291508390505b6001851115620002a85780860481111562000280576200027f6200049a565b5b6001851615620002905780820291505b8081029050620002a085620004c9565b945062000260565b94509492505050565b6000620002be8262000483565b9150620002cb836200048d565b9250620002fa7fffffffffffffffffffffffffffffffffffffffffffffffffffffffffffffffff848462000302565b905092915050565b600082620003145760019050620003e7565b81620003245760009050620003e7565b81600181146200033d576002811462000348576200037e565b6001915050620003e7565b60ff8411156200035d576200035c6200049a565b5b8360020a9150848211156200037757620003766200049a565b5b50620003e7565b5060208310610133831016604e8410600b8410161715620003b85782820a905083811115620003b257620003b16200049a565b5b620003e7565b620003c7848484600162000256565b92509050818404811115620003e157620003e06200049a565b5b81810290505b9392505050565b6000620003fb8262000483565b9150620004088362000483565b9250817fffffffffffffffffffffffffffffffffffffffffffffffffffffffffffffffff04831182151516156200044457620004436200049a565b5b828202905092915050565b60006200045c8262000463565b9050919050565b600073ffffffffffffffffffffffffffffffffffffffff82169050919050565b6000819050919050565b600060ff82169050919050565b7f4e487b7100000000000000000000000000000000000000000000000000000000600052601160045260246000fd5b60008160011c9050919050565b620004e1816200044f565b8114620004ed57600080fd5b50565b620004fb816200048d565b81146200050757600080fd5b50565b611f9b806200051a6000396000f3fe60806040526004361061012a5760003560e01c8063ce7c2ac2116100ab578063efca2eed1161006f578063efca2eed146103eb578063f0fc6bca14610416578063f7c618c11461042d578063f887ea4014610458578063ffb2c47914610483578063ffd49c84146104c05761012a565b8063ce7c2ac21461030f578063d0e30db01461034e578063d4fda1f214610358578063e2d2e21914610395578063ecd0c0c3146103c05761012a565b80634fab0ae8116100f25780634fab0ae81461021457806366817df51461023f578063997664d71461027c578063ab377daa146102a7578063b2bdfa7b146102e45761012a565b806311ce023d1461012f57806314b6ca961461015a57806328fd3198146101835780632d48e896146101c05780633a98ef39146101e9575b600080fd5b34801561013b57600080fd5b506101446104eb565b6040516101519190611c37565b60405180910390f35b34801561016657600080fd5b50610181600480360381019061017c91906119ae565b6104f1565b005b34801561018f57600080fd5b506101aa60048036038101906101a5919061195c565b610808565b6040516101b79190611c37565b60405180910390f35b3480156101cc57600080fd5b506101e760048036038101906101e29190611a65565b610922565b005b3480156101f557600080fd5b506101fe61098c565b60405161020b9190611c37565b60405180910390f35b34801561022057600080fd5b50610229610992565b6040516102369190611c37565b60405180910390f35b34801561024b57600080fd5b506102666004803603810190610261919061195c565b610998565b6040516102739190611c37565b60405180910390f35b34801561028857600080fd5b506102916109b0565b60405161029e9190611c37565b60405180910390f35b3480156102b357600080fd5b506102ce60048036038101906102c99190611a13565b6109b6565b6040516102db9190611b71565b60405180910390f35b3480156102f057600080fd5b506102f96109f5565b6040516103069190611b71565b60405180910390f35b34801561031b57600080fd5b506103366004803603810190610331919061195c565b610a1b565b60405161034593929190611c52565b60405180910390f35b610356610a45565b005b34801561036457600080fd5b5061037f600480360381019061037a919061195c565b610f24565b60405161038c9190611c37565b60405180910390f35b3480156103a157600080fd5b506103aa610f3c565b6040516103b79190611c37565b60405180910390f35b3480156103cc57600080fd5b506103d5610f42565b6040516103e29190611b71565b60405180910390f35b3480156103f757600080fd5b50610400610f66565b60405161040d9190611c37565b60405180910390f35b34801561042257600080fd5b5061042b610f6c565b005b34801561043957600080fd5b50610442610f77565b60405161044f9190611bb5565b60405180910390f35b34801561046457600080fd5b5061046d610f9d565b60405161047a9190611bd0565b60405180910390f35b34801561048f57600080fd5b506104aa60048036038101906104a59190611a13565b610fc3565b6040516104b79190611c37565b60405180910390f35b3480156104cc57600080fd5b506104d5611201565b6040516104e29190611c37565b60405180910390f35b600c5481565b60008054906101000a900473ffffffffffffffffffffffffffffffffffffffff1673ffffffffffffffffffffffffffffffffffffffff163373ffffffffffffffffffffffffffffffffffffffff1614806105985750600160009054906101000a900473ffffffffffffffffffffffffffffffffffffffff1673ffffffffffffffffffffffffffffffffffffffff163373ffffffffffffffffffffffffffffffffffffffff16145b6105a157600080fd5b6000600760008473ffffffffffffffffffffffffffffffffffffffff1673ffffffffffffffffffffffffffffffffffffffff1681526020019081526020016000206000015411156105f6576105f582611207565b5b60008111801561064857506000600760008473ffffffffffffffffffffffffffffffffffffffff1673ffffffffffffffffffffffffffffffffffffffff16815260200190815260200160002060000154145b1561065b57610656826114ae565b6106bd565b6000811480156106ad57506000600760008473ffffffffffffffffffffffffffffffffffffffff1673ffffffffffffffffffffffffffffffffffffffff16815260200190815260200160002060000154115b156106bc576106bb8261155d565b5b5b61072681610718600760008673ffffffffffffffffffffffffffffffffffffffff1673ffffffffffffffffffffffffffffffffffffffff168152602001908152602001600020600001546008546117fc90919063ffffffff16565b61181290919063ffffffff16565b60088190555080600760008473ffffffffffffffffffffffffffffffffffffffff1673ffffffffffffffffffffffffffffffffffffffff168152602001908152602001600020600001819055506107be600760008473ffffffffffffffffffffffffffffffffffffffff1673ffffffffffffffffffffffffffffffffffffffff16815260200190815260200160002060000154611828565b600760008473ffffffffffffffffffffffffffffffffffffffff1673ffffffffffffffffffffffffffffffffffffffff168152602001908152602001600020600101819055505050565b600080600760008473ffffffffffffffffffffffffffffffffffffffff1673ffffffffffffffffffffffffffffffffffffffff16815260200190815260200160002060000154141561085d576000905061091d565b60006108aa600760008573ffffffffffffffffffffffffffffffffffffffff1673ffffffffffffffffffffffffffffffffffffffff16815260200190815260200160002060000154611828565b90506000600760008573ffffffffffffffffffffffffffffffffffffffff1673ffffffffffffffffffffffffffffffffffffffff1681526020019081526020016000206001015490508082116109055760009250505061091d565b61091881836117fc90919063ffffffff16565b925050505b919050565b60008054906101000a900473ffffffffffffffffffffffffffffffffffffffff1673ffffffffffffffffffffffffffffffffffffffff163373ffffffffffffffffffffffffffffffffffffffff161461097a57600080fd5b81600d8190555080600e819055505050565b60085481565b600e5481565b60066020528060005260406000206000915090505481565b60095481565b600481815481106109c657600080fd5b906000526020600020016000915054906101000a900473ffffffffffffffffffffffffffffffffffffffff1681565b600160009054906101000a900473ffffffffffffffffffffffffffffffffffffffff1681565b60076020528060005260406000206000915090508060000154908060010154908060020154905083565b60008054906101000a900473ffffffffffffffffffffffffffffffffffffffff1673ffffffffffffffffffffffffffffffffffffffff163373ffffffffffffffffffffffffffffffffffffffff1614610a9d57600080fd5b6000600260009054906101000a900473ffffffffffffffffffffffffffffffffffffffff1673ffffffffffffffffffffffffffffffffffffffff166370a08231306040518263ffffffff1660e01b8152600401610afa9190611b71565b60206040518083038186803b158015610b1257600080fd5b505afa158015610b26573d6000803e3d6000fd5b505050506040513d601f19601f82011682018060405250810190610b4a9190611a3c565b90506000600267ffffffffffffffff811115610b8f577f4e487b7100000000000000000000000000000000000000000000000000000000600052604160045260246000fd5b604051908082528060200260200182016040528015610bbd5781602001602082028036833780820191505090505b509050600360009054906101000a900473ffffffffffffffffffffffffffffffffffffffff1673ffffffffffffffffffffffffffffffffffffffff1663ad5c46486040518163ffffffff1660e01b815260040160206040518083038186803b158015610c2857600080fd5b505afa158015610c3c573d6000803e3d6000fd5b505050506040513d601f19601f82011682018060405250810190610c609190611985565b81600081518110610c9a577f4e487b7100000000000000000000000000000000000000000000000000000000600052603260045260246000fd5b602002602001019073ffffffffffffffffffffffffffffffffffffffff16908173ffffffffffffffffffffffffffffffffffffffff1681525050600260009054906101000a900473ffffffffffffffffffffffffffffffffffffffff1681600181518110610d31577f4e487b7100000000000000000000000000000000000000000000000000000000600052603260045260246000fd5b602002602001019073ffffffffffffffffffffffffffffffffffffffff16908173ffffffffffffffffffffffffffffffffffffffff1681525050600360009054906101000a900473ffffffffffffffffffffffffffffffffffffffff1673ffffffffffffffffffffffffffffffffffffffff1663b6f9de953460008430426040518663ffffffff1660e01b8152600401610dce9493929190611beb565b6000604051808303818588803b158015610de757600080fd5b505af1158015610dfb573d6000803e3d6000fd5b50505050506000610ebf83600260009054906101000a900473ffffffffffffffffffffffffffffffffffffffff1673ffffffffffffffffffffffffffffffffffffffff166370a08231306040518263ffffffff1660e01b8152600401610e619190611b71565b60206040518083038186803b158015610e7957600080fd5b505afa158015610e8d573d6000803e3d6000fd5b505050506040513d601f19601f82011682018060405250810190610eb19190611a3c565b6117fc90919063ffffffff16565b9050610ed68160095461181290919063ffffffff16565b600981905550610f19610f08600854610efa84600c5461185a90919063ffffffff16565b61187090919063ffffffff16565b600b5461181290919063ffffffff16565b600b81905550505050565b60056020528060005260406000206000915090505481565b600b5481565b60008054906101000a900473ffffffffffffffffffffffffffffffffffffffff1681565b600a5481565b610f7533611207565b565b600260009054906101000a900473ffffffffffffffffffffffffffffffffffffffff1681565b600360009054906101000a900473ffffffffffffffffffffffffffffffffffffffff1681565b60008060009054906101000a900473ffffffffffffffffffffffffffffffffffffffff1673ffffffffffffffffffffffffffffffffffffffff163373ffffffffffffffffffffffffffffffffffffffff16148061106d5750600160009054906101000a900473ffffffffffffffffffffffffffffffffffffffff1673ffffffffffffffffffffffffffffffffffffffff163373ffffffffffffffffffffffffffffffffffffffff16145b61107657600080fd5b6000600480549050905060008114156110935760009150506111fc565b6000805a9050600080600f5490505b86841080156110b057508482105b156111ec578481106110c157600090505b61112e600482815481106110fe577f4e487b7100000000000000000000000000000000000000000000000000000000600052603260045260246000fd5b9060005260206000200160009054906101000a900473ffffffffffffffffffffffffffffffffffffffff16611886565b156111a1576111a060048281548110611170577f4e487b7100000000000000000000000000000000000000000000000000000000600052603260045260246000fd5b9060005260206000200160009054906101000a900473ffffffffffffffffffffffffffffffffffffffff16611207565b5b6111c66111b75a856117fc90919063ffffffff16565b8561181290919063ffffffff16565b93505a925080806111d690611e79565b91505081806111e490611e79565b9250506110a2565b80600f8190555083955050505050505b919050565b600d5481565b6000600760008373ffffffffffffffffffffffffffffffffffffffff1673ffffffffffffffffffffffffffffffffffffffff168152602001908152602001600020600001541415611257576114ab565b600061126282610808565b905060008111156114a95761128281600a5461181290919063ffffffff16565b600a81905550600260009054906101000a900473ffffffffffffffffffffffffffffffffffffffff1673ffffffffffffffffffffffffffffffffffffffff1663a9059cbb83836040518363ffffffff1660e01b81526004016112e5929190611b8c565b602060405180830381600087803b1580156112ff57600080fd5b505af1158015611313573d6000803e3d6000fd5b505050506040513d601f19601f8201168201806040525081019061133791906119ea565b5042600660008473ffffffffffffffffffffffffffffffffffffffff1673ffffffffffffffffffffffffffffffffffffffff168152602001908152602001600020819055506113d181600760008573ffffffffffffffffffffffffffffffffffffffff1673ffffffffffffffffffffffffffffffffffffffff1681526020019081526020016000206002015461181290919063ffffffff16565b600760008473ffffffffffffffffffffffffffffffffffffffff1673ffffffffffffffffffffffffffffffffffffffff16815260200190815260200160002060020181905550611462600760008473ffffffffffffffffffffffffffffffffffffffff1673ffffffffffffffffffffffffffffffffffffffff16815260200190815260200160002060000154611828565b600760008473ffffffffffffffffffffffffffffffffffffffff1673ffffffffffffffffffffffffffffffffffffffff168152602001908152602001600020600101819055505b505b50565b600480549050600560008373ffffffffffffffffffffffffffffffffffffffff1673ffffffffffffffffffffffffffffffffffffffff168152602001908152602001600020819055506004819080600181540180825580915050600190039060005260206000200160009091909190916101000a81548173ffffffffffffffffffffffffffffffffffffffff021916908373ffffffffffffffffffffffffffffffffffffffff16021790555050565b600460016004805490506115719190611da3565b815481106115a8577f4e487b7100000000000000000000000000000000000000000000000000000000600052603260045260246000fd5b9060005260206000200160009054906101000a900473ffffffffffffffffffffffffffffffffffffffff166004600560008473ffffffffffffffffffffffffffffffffffffffff1673ffffffffffffffffffffffffffffffffffffffff168152602001908152602001600020548154811061164c577f4e487b7100000000000000000000000000000000000000000000000000000000600052603260045260246000fd5b9060005260206000200160006101000a81548173ffffffffffffffffffffffffffffffffffffffff021916908373ffffffffffffffffffffffffffffffffffffffff160217905550600560008273ffffffffffffffffffffffffffffffffffffffff1673ffffffffffffffffffffffffffffffffffffffff1681526020019081526020016000205460056000600460016004805490506116ec9190611da3565b81548110611723577f4e487b7100000000000000000000000000000000000000000000000000000000600052603260045260246000fd5b9060005260206000200160009054906101000a900473ffffffffffffffffffffffffffffffffffffffff1673ffffffffffffffffffffffffffffffffffffffff1673ffffffffffffffffffffffffffffffffffffffff1681526020019081526020016000208190555060048054806117c4577f4e487b7100000000000000000000000000000000000000000000000000000000600052603160045260246000fd5b6001900381819060005260206000200160006101000a81549073ffffffffffffffffffffffffffffffffffffffff0219169055905550565b6000818361180a9190611da3565b905092915050565b600081836118209190611cc2565b905092915050565b6000611853600c54611845600b548561185a90919063ffffffff16565b61187090919063ffffffff16565b9050919050565b600081836118689190611d49565b905092915050565b6000818361187e9190611d18565b905092915050565b600042600d54600660008573ffffffffffffffffffffffffffffffffffffffff1673ffffffffffffffffffffffffffffffffffffffff168152602001908152602001600020546118d69190611cc2565b1080156118ec5750600e546118ea83610808565b115b9050919050565b60008135905061190281611f20565b92915050565b60008151905061191781611f20565b92915050565b60008151905061192c81611f37565b92915050565b60008135905061194181611f4e565b92915050565b60008151905061195681611f4e565b92915050565b60006020828403121561196e57600080fd5b600061197c848285016118f3565b91505092915050565b60006020828403121561199757600080fd5b60006119a584828501611908565b91505092915050565b600080604083850312156119c157600080fd5b60006119cf858286016118f3565b92505060206119e085828601611932565b9150509250929050565b6000602082840312156119fc57600080fd5b6000611a0a8482850161191d565b91505092915050565b600060208284031215611a2557600080fd5b6000611a3384828501611932565b91505092915050565b600060208284031215611a4e57600080fd5b6000611a5c84828501611947565b91505092915050565b60008060408385031215611a7857600080fd5b6000611a8685828601611932565b9250506020611a9785828601611932565b9150509250929050565b6000611aad8383611ab9565b60208301905092915050565b611ac281611dd7565b82525050565b611ad181611dd7565b82525050565b6000611ae282611c99565b611aec8185611cb1565b9350611af783611c89565b8060005b83811015611b28578151611b0f8882611aa1565b9750611b1a83611ca4565b925050600181019050611afb565b5085935050505092915050565b611b3e81611e1f565b82525050565b611b4d81611e43565b82525050565b611b5c81611e67565b82525050565b611b6b81611e15565b82525050565b6000602082019050611b866000830184611ac8565b92915050565b6000604082019050611ba16000830185611ac8565b611bae6020830184611b62565b9392505050565b6000602082019050611bca6000830184611b35565b92915050565b6000602082019050611be56000830184611b44565b92915050565b6000608082019050611c006000830187611b53565b8181036020830152611c128186611ad7565b9050611c216040830185611ac8565b611c2e6060830184611b62565b95945050505050565b6000602082019050611c4c6000830184611b62565b92915050565b6000606082019050611c676000830186611b62565b611c746020830185611b62565b611c816040830184611b62565b949350505050565b6000819050602082019050919050565b600081519050919050565b6000602082019050919050565b600082825260208201905092915050565b6000611ccd82611e15565b9150611cd883611e15565b9250827fffffffffffffffffffffffffffffffffffffffffffffffffffffffffffffffff03821115611d0d57611d0c611ec2565b5b828201905092915050565b6000611d2382611e15565b9150611d2e83611e15565b925082611d3e57611d3d611ef1565b5b828204905092915050565b6000611d5482611e15565b9150611d5f83611e15565b9250817fffffffffffffffffffffffffffffffffffffffffffffffffffffffffffffffff0483118215151615611d9857611d97611ec2565b5b828202905092915050565b6000611dae82611e15565b9150611db983611e15565b925082821015611dcc57611dcb611ec2565b5b828203905092915050565b6000611de282611df5565b9050919050565b60008115159050919050565b600073ffffffffffffffffffffffffffffffffffffffff82169050919050565b6000819050919050565b6000611e2a82611e31565b9050919050565b6000611e3c82611df5565b9050919050565b6000611e4e82611e55565b9050919050565b6000611e6082611df5565b9050919050565b6000611e7282611e15565b9050919050565b6000611e8482611e15565b91507fffffffffffffffffffffffffffffffffffffffffffffffffffffffffffffffff821415611eb757611eb6611ec2565b5b600182019050919050565b7f4e487b7100000000000000000000000000000000000000000000000000000000600052601160045260246000fd5b7f4e487b7100000000000000000000000000000000000000000000000000000000600052601260045260246000fd5b611f2981611dd7565b8114611f3457600080fd5b50565b611f4081611de9565b8114611f4b57600080fd5b50565b611f5781611e15565b8114611f6257600080fd5b5056fea2646970667358221220903865b8558a8e05732b6d8cd38da4b9e8b828c544bf1841bd91f00f688f1f7664736f6c63430008040033",
  "immutableReferences": {},
  "source": "//SPDX-License-Identifier: MIT\r\n\r\npragma solidity ^0.8.0;\r\n\r\nimport \"./IDividendDistributor.sol\";\r\nimport \"./SafeMath.sol\";\r\nimport \"./IERC20Extended.sol\";\r\nimport \"./IUniswapV2Router02.sol\";\r\n\r\ncontract DividendDistributor is IDividendDistributor {\r\n    using SafeMath for uint256;\r\n\r\n    address public _token;\r\n    address public _owner;\r\n    uint256 constant private processIterationGasCostMax = 0;\r\n\r\n    struct Share {\r\n        uint256 amount;\r\n        uint256 totalExcluded;\r\n        uint256 totalRealised;\r\n    }\r\n\r\n    IERC20Extended public rewardToken;\r\n    IUniswapV2Router02 public router;\r\n\r\n    address[] public shareholders;\r\n    mapping(address => uint256) public shareholderIndexes;\r\n    mapping(address => uint256) public shareholderClaims;\r\n\r\n    mapping(address => Share) public shares;\r\n\r\n    uint256 public totalShares;\r\n    uint256 public totalDividends;\r\n    uint256 public totalDistributed;\r\n    uint256 public dividendsPerShare;\r\n    uint256 public dividendsPerShareAccuracyFactor;\r\n\r\n    uint256 public minPeriod;\r\n    uint256 public minDistribution;\r\n\r\n    uint256 currentIndex;\r\n\r\n    bool initialized;\r\n    modifier initializer() {\r\n        require(!initialized);\r\n        _;\r\n        initialized = true;\r\n    }\r\n\r\n    modifier onlyToken() {\r\n        require(msg.sender == _token);\r\n        _;\r\n    }\r\n\r\n    modifier onlyTokenAndOwner() {\r\n        require(msg.sender == _token || msg.sender == _owner);\r\n        _;\r\n    }\r\n\r\n    constructor(address owner_, address rewardToken_, address router_) {\r\n        _token = msg.sender;\r\n        owner_ = owner_;\r\n        rewardToken = IERC20Extended(rewardToken_);\r\n        //router = IUniswapV2Router02(router_);\r\n\r\n        dividendsPerShareAccuracyFactor = 10**36;\r\n        minPeriod = 1 hours;\r\n        minDistribution = 1 * (10**rewardToken.decimals());\r\n    }\r\n\r\n    function setDistributionCriteria(\r\n        uint256 _minPeriod,\r\n        uint256 _minDistribution\r\n    ) external override onlyToken {\r\n        minPeriod = _minPeriod;\r\n        minDistribution = _minDistribution;\r\n    }\r\n\r\n    function setShare(address shareholder, uint256 amount)\r\n        external\r\n        override\r\n        onlyTokenAndOwner\r\n    {\r\n        if (shares[shareholder].amount > 0) {\r\n            distributeDividend(shareholder);\r\n        }\r\n\r\n        if (amount > 0 && shares[shareholder].amount == 0) {\r\n            addShareholder(shareholder);\r\n        } else if (amount == 0 && shares[shareholder].amount > 0) {\r\n            removeShareholder(shareholder);\r\n        }\r\n\r\n        totalShares = totalShares.sub(shares[shareholder].amount).add(amount);\r\n        shares[shareholder].amount = amount;\r\n        shares[shareholder].totalExcluded = getCumulativeDividends(\r\n            shares[shareholder].amount\r\n        );\r\n    }\r\n\r\n    function deposit() external payable override onlyToken {\r\n        uint256 balanceBefore = rewardToken.balanceOf(address(this));\r\n\r\n        address[] memory path = new address[](2);\r\n        path[0] = router.WETH();\r\n        path[1] = address(rewardToken);\r\n\r\n        router.swapExactETHForTokensSupportingFeeOnTransferTokens{\r\n            value: msg.value\r\n        }(0, path, address(this), block.timestamp);\r\n\r\n        uint256 amount = rewardToken.balanceOf(address(this)).sub(\r\n            balanceBefore\r\n        );\r\n\r\n        totalDividends = totalDividends.add(amount);\r\n        dividendsPerShare = dividendsPerShare.add(\r\n            dividendsPerShareAccuracyFactor.mul(amount).div(totalShares)\r\n        );\r\n    }\r\n\r\n    //My modifications to the process function\r\n    function process(uint256 gas) external override onlyTokenAndOwner returns (uint256) {\r\n        uint256 shareholderCount = shareholders.length;\r\n\r\n        if (shareholderCount == 0) {\r\n            return uint256(0);\r\n        }\r\n\r\n        uint256 gasUsed = 0;\r\n        uint256 gasLeft = gasleft();\r\n\r\n        uint256 iterations = 0;\r\n        uint256 index = currentIndex;\r\n\r\n        while (gasUsed < gas && iterations < shareholderCount) {\r\n            if (index >= shareholderCount) {\r\n                index = 0;\r\n            }\r\n\r\n            if (shouldDistribute(shareholders[index])) {\r\n                distributeDividend(shareholders[index]);\r\n            }\r\n\r\n            gasUsed = gasUsed.add(gasLeft.sub(gasleft()));\r\n            gasLeft = gasleft();\r\n            index++;\r\n            iterations++;\r\n        }\r\n        currentIndex = index;\r\n        return gasUsed;\r\n    }\r\n\r\n    function shouldDistribute(address shareholder)\r\n        internal\r\n        view\r\n        returns (bool)\r\n    {\r\n        return\r\n            shareholderClaims[shareholder] + minPeriod < block.timestamp &&\r\n            getUnpaidEarnings(shareholder) > minDistribution;\r\n    }\r\n\r\n    function distributeDividend(address shareholder) internal {\r\n        if (shares[shareholder].amount == 0) {\r\n            return;\r\n        }\r\n\r\n        uint256 amount = getUnpaidEarnings(shareholder);\r\n        if (amount > 0) {\r\n            totalDistributed = totalDistributed.add(amount);\r\n            rewardToken.transfer(shareholder, amount);\r\n            shareholderClaims[shareholder] = block.timestamp;\r\n            shares[shareholder].totalRealised = shares[shareholder]\r\n                .totalRealised\r\n                .add(amount);\r\n            shares[shareholder].totalExcluded = getCumulativeDividends(\r\n                shares[shareholder].amount\r\n            );\r\n        }\r\n    }\r\n\r\n    function claimDividend() external {\r\n        distributeDividend(msg.sender);\r\n    }\r\n\r\n    function getUnpaidEarnings(address shareholder)\r\n        public\r\n        view\r\n        returns (uint256)\r\n    {\r\n        if (shares[shareholder].amount == 0) {\r\n            return 0;\r\n        }\r\n\r\n        uint256 shareholderTotalDividends = getCumulativeDividends(\r\n            shares[shareholder].amount\r\n        );\r\n        uint256 shareholderTotalExcluded = shares[shareholder].totalExcluded;\r\n\r\n        if (shareholderTotalDividends <= shareholderTotalExcluded) {\r\n            return 0;\r\n        }\r\n\r\n        return shareholderTotalDividends.sub(shareholderTotalExcluded);\r\n    }\r\n\r\n    function getCumulativeDividends(uint256 share)\r\n        internal\r\n        view\r\n        returns (uint256)\r\n    {\r\n        return\r\n            share.mul(dividendsPerShare).div(dividendsPerShareAccuracyFactor);\r\n    }\r\n\r\n    function addShareholder(address shareholder) internal {\r\n        shareholderIndexes[shareholder] = shareholders.length;\r\n        shareholders.push(shareholder);\r\n    }\r\n\r\n    function removeShareholder(address shareholder) internal {\r\n        shareholders[shareholderIndexes[shareholder]] = shareholders[\r\n            shareholders.length - 1\r\n        ];\r\n        shareholderIndexes[\r\n            shareholders[shareholders.length - 1]\r\n        ] = shareholderIndexes[shareholder];\r\n        shareholders.pop();\r\n    }\r\n}",
  "sourcePath": "C:\\Users\\azamo\\OneDrive\\Projects\\BUSDMETA\\contracts\\DividendDistributor.sol",
  "compiler": {
    "name": "solc",
    "version": "0.8.4+commit.c7e474f2.Emscripten.clang"
  },
  "schemaVersion": "3.4.4",
  "updatedAt": "2022-02-27T02:02:59.403Z",
  "networkType": "ethereum",
  "devdoc": {
    "kind": "dev",
    "methods": {},
    "version": 1
  },
  "userdoc": {
    "kind": "user",
    "methods": {},
    "version": 1
  }
}